{
  "address": "0xebe0c8d842AA5A57D7BEf8e524dEabA676F91cD1",
  "abi": [
    {
      "inputs": [
        {
          "internalType": "contract IStrategy",
          "name": "_strategy",
          "type": "address"
        },
        {
          "internalType": "string",
          "name": "_name",
          "type": "string"
        },
        {
          "internalType": "string",
          "name": "_symbol",
          "type": "string"
        },
        {
          "internalType": "uint256",
          "name": "_approvalDelay",
          "type": "uint256"
        }
      ],
      "stateMutability": "nonpayable",
      "type": "constructor"
    },
    {
      "anonymous": false,
      "inputs": [
        {
          "indexed": true,
          "internalType": "address",
          "name": "owner",
          "type": "address"
        },
        {
          "indexed": true,
          "internalType": "address",
          "name": "spender",
          "type": "address"
        },
        {
          "indexed": false,
          "internalType": "uint256",
          "name": "value",
          "type": "uint256"
        }
      ],
      "name": "Approval",
      "type": "event"
    },
    {
      "anonymous": false,
      "inputs": [
        {
          "indexed": false,
          "internalType": "address",
          "name": "implementation",
          "type": "address"
        }
      ],
      "name": "NewStratCandidate",
      "type": "event"
    },
    {
      "anonymous": false,
      "inputs": [
        {
          "indexed": true,
          "internalType": "address",
          "name": "previousOwner",
          "type": "address"
        },
        {
          "indexed": true,
          "internalType": "address",
          "name": "newOwner",
          "type": "address"
        }
      ],
      "name": "OwnershipTransferred",
      "type": "event"
    },
    {
      "anonymous": false,
      "inputs": [
        {
          "indexed": true,
          "internalType": "address",
          "name": "from",
          "type": "address"
        },
        {
          "indexed": true,
          "internalType": "address",
          "name": "to",
          "type": "address"
        },
        {
          "indexed": false,
          "internalType": "uint256",
          "name": "value",
          "type": "uint256"
        }
      ],
      "name": "Transfer",
      "type": "event"
    },
    {
      "anonymous": false,
      "inputs": [
        {
          "indexed": false,
          "internalType": "address",
          "name": "implementation",
          "type": "address"
        }
      ],
      "name": "UpgradeStrat",
      "type": "event"
    },
    {
      "inputs": [
        {
          "internalType": "address",
          "name": "owner",
          "type": "address"
        },
        {
          "internalType": "address",
          "name": "spender",
          "type": "address"
        }
      ],
      "name": "allowance",
      "outputs": [
        {
          "internalType": "uint256",
          "name": "",
          "type": "uint256"
        }
      ],
      "stateMutability": "view",
      "type": "function"
    },
    {
      "inputs": [],
      "name": "approvalDelay",
      "outputs": [
        {
          "internalType": "uint256",
          "name": "",
          "type": "uint256"
        }
      ],
      "stateMutability": "view",
      "type": "function"
    },
    {
      "inputs": [
        {
          "internalType": "address",
          "name": "spender",
          "type": "address"
        },
        {
          "internalType": "uint256",
          "name": "amount",
          "type": "uint256"
        }
      ],
      "name": "approve",
      "outputs": [
        {
          "internalType": "bool",
          "name": "",
          "type": "bool"
        }
      ],
      "stateMutability": "nonpayable",
      "type": "function"
    },
    {
      "inputs": [],
      "name": "available",
      "outputs": [
        {
          "internalType": "uint256",
          "name": "",
          "type": "uint256"
        }
      ],
      "stateMutability": "view",
      "type": "function"
    },
    {
      "inputs": [],
      "name": "balance",
      "outputs": [
        {
          "internalType": "uint256",
          "name": "",
          "type": "uint256"
        }
      ],
      "stateMutability": "view",
      "type": "function"
    },
    {
      "inputs": [
        {
          "internalType": "address",
          "name": "account",
          "type": "address"
        }
      ],
      "name": "balanceOf",
      "outputs": [
        {
          "internalType": "uint256",
          "name": "",
          "type": "uint256"
        }
      ],
      "stateMutability": "view",
      "type": "function"
    },
    {
      "inputs": [],
      "name": "decimals",
      "outputs": [
        {
          "internalType": "uint8",
          "name": "",
          "type": "uint8"
        }
      ],
      "stateMutability": "view",
      "type": "function"
    },
    {
      "inputs": [
        {
          "internalType": "address",
          "name": "spender",
          "type": "address"
        },
        {
          "internalType": "uint256",
          "name": "subtractedValue",
          "type": "uint256"
        }
      ],
      "name": "decreaseAllowance",
      "outputs": [
        {
          "internalType": "bool",
          "name": "",
          "type": "bool"
        }
      ],
      "stateMutability": "nonpayable",
      "type": "function"
    },
    {
      "inputs": [
        {
          "internalType": "uint256",
          "name": "_amount",
          "type": "uint256"
        }
      ],
      "name": "deposit",
      "outputs": [],
      "stateMutability": "nonpayable",
      "type": "function"
    },
    {
      "inputs": [],
      "name": "depositAll",
      "outputs": [],
      "stateMutability": "nonpayable",
      "type": "function"
    },
    {
      "inputs": [],
      "name": "earn",
      "outputs": [],
      "stateMutability": "nonpayable",
      "type": "function"
    },
    {
      "inputs": [],
      "name": "getPricePerFullShare",
      "outputs": [
        {
          "internalType": "uint256",
          "name": "",
          "type": "uint256"
        }
      ],
      "stateMutability": "view",
      "type": "function"
    },
    {
      "inputs": [
        {
          "internalType": "address",
          "name": "_token",
          "type": "address"
        }
      ],
      "name": "inCaseTokensGetStuck",
      "outputs": [],
      "stateMutability": "nonpayable",
      "type": "function"
    },
    {
      "inputs": [
        {
          "internalType": "address",
          "name": "spender",
          "type": "address"
        },
        {
          "internalType": "uint256",
          "name": "addedValue",
          "type": "uint256"
        }
      ],
      "name": "increaseAllowance",
      "outputs": [
        {
          "internalType": "bool",
          "name": "",
          "type": "bool"
        }
      ],
      "stateMutability": "nonpayable",
      "type": "function"
    },
    {
      "inputs": [],
      "name": "name",
      "outputs": [
        {
          "internalType": "string",
          "name": "",
          "type": "string"
        }
      ],
      "stateMutability": "view",
      "type": "function"
    },
    {
      "inputs": [],
      "name": "owner",
      "outputs": [
        {
          "internalType": "address",
          "name": "",
          "type": "address"
        }
      ],
      "stateMutability": "view",
      "type": "function"
    },
    {
      "inputs": [
        {
          "internalType": "address",
          "name": "_implementation",
          "type": "address"
        }
      ],
      "name": "proposeStrat",
      "outputs": [],
      "stateMutability": "nonpayable",
      "type": "function"
    },
    {
      "inputs": [],
      "name": "renounceOwnership",
      "outputs": [],
      "stateMutability": "nonpayable",
      "type": "function"
    },
    {
      "inputs": [],
      "name": "stratCandidate",
      "outputs": [
        {
          "internalType": "address",
          "name": "implementation",
          "type": "address"
        },
        {
          "internalType": "uint256",
          "name": "proposedTime",
          "type": "uint256"
        }
      ],
      "stateMutability": "view",
      "type": "function"
    },
    {
      "inputs": [],
      "name": "strategy",
      "outputs": [
        {
          "internalType": "contract IStrategy",
          "name": "",
          "type": "address"
        }
      ],
      "stateMutability": "view",
      "type": "function"
    },
    {
      "inputs": [],
      "name": "symbol",
      "outputs": [
        {
          "internalType": "string",
          "name": "",
          "type": "string"
        }
      ],
      "stateMutability": "view",
      "type": "function"
    },
    {
      "inputs": [],
      "name": "totalSupply",
      "outputs": [
        {
          "internalType": "uint256",
          "name": "",
          "type": "uint256"
        }
      ],
      "stateMutability": "view",
      "type": "function"
    },
    {
      "inputs": [
        {
          "internalType": "address",
          "name": "recipient",
          "type": "address"
        },
        {
          "internalType": "uint256",
          "name": "amount",
          "type": "uint256"
        }
      ],
      "name": "transfer",
      "outputs": [
        {
          "internalType": "bool",
          "name": "",
          "type": "bool"
        }
      ],
      "stateMutability": "nonpayable",
      "type": "function"
    },
    {
      "inputs": [
        {
          "internalType": "address",
          "name": "sender",
          "type": "address"
        },
        {
          "internalType": "address",
          "name": "recipient",
          "type": "address"
        },
        {
          "internalType": "uint256",
          "name": "amount",
          "type": "uint256"
        }
      ],
      "name": "transferFrom",
      "outputs": [
        {
          "internalType": "bool",
          "name": "",
          "type": "bool"
        }
      ],
      "stateMutability": "nonpayable",
      "type": "function"
    },
    {
      "inputs": [
        {
          "internalType": "address",
          "name": "newOwner",
          "type": "address"
        }
      ],
      "name": "transferOwnership",
      "outputs": [],
      "stateMutability": "nonpayable",
      "type": "function"
    },
    {
      "inputs": [],
      "name": "upgradeStrat",
      "outputs": [],
      "stateMutability": "nonpayable",
      "type": "function"
    },
    {
      "inputs": [],
      "name": "want",
      "outputs": [
        {
          "internalType": "contract IERC20",
          "name": "",
          "type": "address"
        }
      ],
      "stateMutability": "view",
      "type": "function"
    },
    {
      "inputs": [
        {
          "internalType": "uint256",
          "name": "_shares",
          "type": "uint256"
        }
      ],
      "name": "withdraw",
      "outputs": [],
      "stateMutability": "nonpayable",
      "type": "function"
    },
    {
      "inputs": [],
      "name": "withdrawAll",
      "outputs": [],
      "stateMutability": "nonpayable",
      "type": "function"
    }
  ],
  "transactionHash": "0xdf9ed20715484d71b3656e7a1fe41937984d987581a9c042c34cdba6be17bf06",
  "args": [
    "0xECB07aB9E318d55f8018Bc1d01effe1680d1f68c",
    "Moo Mai USDC-miMATIC",
    "mooMaiUSDC-miMATIC",
    21600
  ],
  "solcInputHash": "6cd21ea2bd1b49fbc683d4234540101b",
  "bytecode": "0x60a06040523480156200001157600080fd5b506040516200219638038062002196833981810160405260808110156200003757600080fd5b8151602083018051604051929492938301929190846401000000008211156200005f57600080fd5b9083019060208201858111156200007557600080fd5b82516401000000008111828201881017156200009057600080fd5b82525081516020918201929091019080838360005b83811015620000bf578181015183820152602001620000a5565b50505050905090810190601f168015620000ed5780820380516001836020036101000a031916815260200191505b50604052602001805160405193929190846401000000008211156200011157600080fd5b9083019060208201858111156200012757600080fd5b82516401000000008111828201881017156200014257600080fd5b82525081516020918201929091019080838360005b838110156200017157818101518382015260200162000157565b50505050905090810190601f1680156200019f5780820380516001836020036101000a031916815260200191505b5060405260209081015185519093508592508491620001c49160039185019062000272565b508051620001da90600490602084019062000272565b5050506000620001ef6200026e60201b60201c565b600580546001600160a01b0319166001600160a01b038316908117909155604051919250906000907f8be0079c531659141344cd1fd0a4f28419497f9722a3daafe3b4186f6b6457e0908290a3506001600655600980546001600160a01b0319166001600160a01b039590951694909417909355505060805262000355565b3390565b828054620002809062000318565b90600052602060002090601f016020900481019282620002a45760008555620002ef565b82601f10620002bf57805160ff1916838001178555620002ef565b82800160010185558215620002ef579182015b82811115620002ef578251825591602001919060010190620002d2565b50620002fd92915062000301565b5090565b5b80821115620002fd576000815560010162000302565b600181811c908216806200032d57607f821691505b602082108114156200034f57634e487b7160e01b600052602260045260246000fd5b50919050565b608051611e1e620003786000396000818161054201526111bd0152611e1e6000f3fe608060405234801561001057600080fd5b50600436106101cf5760003560e01c8063853828b611610104578063b6b55f25116100a2578063def68a9c11610071578063def68a9c14610517578063e2d1e75c1461053d578063e668524414610564578063f2fde38b1461056c57600080fd5b8063b6b55f25146104a3578063d389800f146104c0578063dd62ed3e146104c8578063de5f62681461050f57600080fd5b8063a457c2d7116100de578063a457c2d714610430578063a8c62e761461045c578063a9059cbb1461046f578063b69ef8a81461049b57600080fd5b8063853828b61461040f5780638da5cb5b1461041757806395d89b411461042857600080fd5b8063395093511161017157806370a082311161014b57806370a0823114610392578063715018a6146103c557806376dfabb8146103cd57806377c7b8fc1461040757600080fd5b8063395093511461033857806348a0d754146103645780635b12ff9b1461036c57600080fd5b80631f1fcd51116101ad5780631f1fcd51146102a757806323b872dd146102cb5780632e1a7d4d14610301578063313ce5671461032057600080fd5b806306fdde03146101d4578063095ea7b31461025157806318160ddd14610291575b600080fd5b6101dc610592565b6040805160208082528351818301528351919283929083019185019080838360005b838110156102165781810151838201526020016101fe565b50505050905090810190601f1680156102435780820380516001836020036101000a031916815260200191505b509250505060405180910390f35b61027d6004803603604081101561026757600080fd5b506001600160a01b038135169060200135610624565b604080519115158252519081900360200190f35b6002545b60408051918252519081900360200190f35b6102af61063a565b604080516001600160a01b039092168252519081900360200190f35b61027d600480360360608110156102e157600080fd5b506001600160a01b038135811691602081013590911690604001356106b0565b61031e6004803603602081101561031757600080fd5b5035610768565b005b60126040805160ff9092168252519081900360200190f35b61027d6004803603604081101561034e57600080fd5b506001600160a01b038135169060200135610967565b61029561099e565b61031e6004803603602081101561038257600080fd5b50356001600160a01b03166109f4565b610295600480360360208110156103a857600080fd5b50356001600160a01b031660009081526020819052604090205490565b61031e610b31565b6007546008546103e4916001600160a01b03169082565b604080516001600160a01b03909316835260208301919091528051918290030190f35b610295610ba5565b61031e610be7565b6005546001600160a01b03166102af565b6101dc610c02565b61027d6004803603604081101561044657600080fd5b506001600160a01b038135169060200135610c11565b6009546102af906001600160a01b031681565b61027d6004803603604081101561048557600080fd5b506001600160a01b038135169060200135610cac565b610295610cb9565b61031e600480360360208110156104b957600080fd5b5035610dbe565b61031e610f04565b610295600480360360408110156104de57600080fd5b506001600160a01b038135811660009081526001602090815260408083209482013590931682529290925290205490565b61031e610f95565b61031e6004803603602081101561052d57600080fd5b50356001600160a01b031661101d565b6102957f000000000000000000000000000000000000000000000000000000000000000081565b61031e611133565b61031e6004803603602081101561058257600080fd5b50356001600160a01b0316611307565b6060600380546105a190611d76565b80601f01602080910402602001604051908101604052809291908181526020018280546105cd90611d76565b801561061a5780601f106105ef5761010080835404028352916020019161061a565b820191906000526020600020905b8154815290600101906020018083116105fd57829003601f168201915b5050505050905090565b60006106313384846113f2565b50600192915050565b60095460408051631f1fcd5160e01b815290516000926001600160a01b031691631f1fcd51916004808301926020929190829003018186803b15801561067f57600080fd5b505afa158015610693573d6000803e3d6000fd5b505050506040513d60208110156106a957600080fd5b5051919050565b60006106bd848484611517565b6001600160a01b0384166000908152600160209081526040808320338452909152902054828110156107475760405162461bcd60e51b815260206004820152602860248201527f45524332303a207472616e7366657220616d6f756e74206578636565647320616044820152676c6c6f77616e636560c01b60648201526084015b60405180910390fd5b61075b85336107568685611d33565b6113f2565b60019150505b9392505050565b600061078e61077660025490565b61078884610782610cb9565b906116ef565b906116fb565b905061079a3383611707565b60006107a461063a565b6001600160a01b03166370a08231306040518263ffffffff1660e01b815260040180826001600160a01b0316815260200191505060206040518083038186803b1580156107f057600080fd5b505afa158015610804573d6000803e3d6000fd5b505050506040513d602081101561081a57600080fd5b50519050818110156109455760006108328383611856565b60095460408051632e1a7d4d60e01b81526004810184905290519293506001600160a01b0390911691632e1a7d4d9160248082019260009290919082900301818387803b15801561088257600080fd5b505af1158015610896573d6000803e3d6000fd5b5050505060006108a461063a565b6001600160a01b03166370a08231306040518263ffffffff1660e01b815260040180826001600160a01b0316815260200191505060206040518083038186803b1580156108f057600080fd5b505afa158015610904573d6000803e3d6000fd5b505050506040513d602081101561091a57600080fd5b50519050600061092a8285611856565b9050828110156109415761093e8482611862565b94505b5050505b610962338361095261063a565b6001600160a01b0316919061186e565b505050565b3360008181526001602090815260408083206001600160a01b03871684529091528120549091610631918590610756908690611cdc565b60006109a861063a565b6001600160a01b03166370a08231306040518263ffffffff1660e01b815260040180826001600160a01b0316815260200191505060206040518083038186803b15801561067f57600080fd5b6005546001600160a01b03163314610a1e5760405162461bcd60e51b815260040161073e90611ca7565b806001600160a01b031663fbfa77cf6040518163ffffffff1660e01b815260040160206040518083038186803b158015610a5757600080fd5b505afa158015610a6b573d6000803e3d6000fd5b505050506040513d6020811015610a8157600080fd5b50516001600160a01b03163014610ac95760405162461bcd60e51b8152600401808060200182810382526021815260200180611dc86021913960400191505060405180910390fd5b6040805180820182526001600160a01b038316808252426020928301819052600780546001600160a01b03191683179055600855825190815291517f1aae2ec5647db56da2d513de40528ba3565c6057525637050660c4323bbac7df9281900390910190a150565b6005546001600160a01b03163314610b5b5760405162461bcd60e51b815260040161073e90611ca7565b6005546040516000916001600160a01b0316907f8be0079c531659141344cd1fd0a4f28419497f9722a3daafe3b4186f6b6457e0908390a3600580546001600160a01b0319169055565b6000610bb060025490565b15610bda57610bd5610bc160025490565b610788670de0b6b3a7640000610782610cb9565b905090565b50670de0b6b3a764000090565b33600090815260208190526040902054610c0090610768565b565b6060600480546105a190611d76565b3360009081526001602090815260408083206001600160a01b038616845290915281205482811015610c935760405162461bcd60e51b815260206004820152602560248201527f45524332303a2064656372656173656420616c6c6f77616e63652062656c6f77604482015264207a65726f60d81b606482015260840161073e565b610ca233856107568685611d33565b5060019392505050565b6000610631338484611517565b6000610bd5600960009054906101000a90046001600160a01b03166001600160a01b031663722713f76040518163ffffffff1660e01b815260040160206040518083038186803b158015610d0c57600080fd5b505afa158015610d20573d6000803e3d6000fd5b505050506040513d6020811015610d3657600080fd5b5051610d4061063a565b6001600160a01b03166370a08231306040518263ffffffff1660e01b815260040180826001600160a01b0316815260200191505060206040518083038186803b158015610d8c57600080fd5b505afa158015610da0573d6000803e3d6000fd5b505050506040513d6020811015610db657600080fd5b505190611862565b60026006541415610e115760405162461bcd60e51b815260206004820152601f60248201527f5265656e7472616e637947756172643a207265656e7472616e742063616c6c00604482015260640161073e565b600260065560095460408051632b9ff78560e11b815290516001600160a01b039092169163573fef0a9160048082019260009290919082900301818387803b158015610e5c57600080fd5b505af1158015610e70573d6000803e3d6000fd5b505050506000610e7e610cb9565b9050610e9f333084610e8e61063a565b6001600160a01b03169291906118d1565b610ea7610f04565b6000610eb1610cb9565b9050610ebd8183611856565b92506000610eca60025490565b610ed5575082610eef565b610eec83610788610ee560025490565b87906116ef565b90505b610ef9338261190f565b505060016006555050565b6000610f0e61099e565b600954909150610f2a906001600160a01b03168261095261063a565b600960009054906101000a90046001600160a01b03166001600160a01b031663d0e30db06040518163ffffffff1660e01b8152600401600060405180830381600087803b158015610f7a57600080fd5b505af1158015610f8e573d6000803e3d6000fd5b5050505050565b610c00610fa061063a565b6001600160a01b03166370a08231336040518263ffffffff1660e01b815260040180826001600160a01b0316815260200191505060206040518083038186803b158015610fec57600080fd5b505afa158015611000573d6000803e3d6000fd5b505050506040513d602081101561101657600080fd5b5051610dbe565b6005546001600160a01b031633146110475760405162461bcd60e51b815260040161073e90611ca7565b61104f61063a565b6001600160a01b0316816001600160a01b0316141561109e576040805162461bcd60e51b815260206004820152600660248201526510ba37b5b2b760d11b604482015290519081900360640190fd5b6000816001600160a01b03166370a08231306040518263ffffffff1660e01b815260040180826001600160a01b0316815260200191505060206040518083038186803b1580156110ed57600080fd5b505afa158015611101573d6000803e3d6000fd5b505050506040513d602081101561111757600080fd5b5051905061112f6001600160a01b038316338361186e565b5050565b6005546001600160a01b0316331461115d5760405162461bcd60e51b815260040161073e90611ca7565b6007546001600160a01b03166111b2576040805162461bcd60e51b81526020600482015260156024820152745468657265206973206e6f2063616e64696461746560581b604482015290519081900360640190fd5b60085442906111e1907f0000000000000000000000000000000000000000000000000000000000000000611862565b1061122a576040805162461bcd60e51b815260206004820152601460248201527311195b185e481a185cc81b9bdd081c185cdcd95960621b604482015290519081900360640190fd5b600754604080516001600160a01b039092168252517f7f37d440e85aba7fbf641c4bda5ca4ef669a80bffaacde2aa8d9feb1b048c82c9181900360200190a1600960009054906101000a90046001600160a01b03166001600160a01b031663fb6177876040518163ffffffff1660e01b8152600401600060405180830381600087803b1580156112b957600080fd5b505af11580156112cd573d6000803e3d6000fd5b505060078054600980546001600160a01b03199081166001600160a01b03841617909155169055505064012a05f200600855610c00610f04565b6005546001600160a01b031633146113315760405162461bcd60e51b815260040161073e90611ca7565b6001600160a01b0381166113965760405162461bcd60e51b815260206004820152602660248201527f4f776e61626c653a206e6577206f776e657220697320746865207a65726f206160448201526564647265737360d01b606482015260840161073e565b6005546040516001600160a01b038084169216907f8be0079c531659141344cd1fd0a4f28419497f9722a3daafe3b4186f6b6457e090600090a3600580546001600160a01b0319166001600160a01b0392909216919091179055565b6001600160a01b0383166114545760405162461bcd60e51b8152602060048201526024808201527f45524332303a20617070726f76652066726f6d20746865207a65726f206164646044820152637265737360e01b606482015260840161073e565b6001600160a01b0382166114b55760405162461bcd60e51b815260206004820152602260248201527f45524332303a20617070726f766520746f20746865207a65726f206164647265604482015261737360f01b606482015260840161073e565b6001600160a01b0383811660008181526001602090815260408083209487168084529482529182902085905590518481527f8c5be1e5ebec7d5bd14f71427d1e84f3dd0314c0f7b2291e5b200ac8c7c3b92591015b60405180910390a3505050565b6001600160a01b03831661157b5760405162461bcd60e51b815260206004820152602560248201527f45524332303a207472616e736665722066726f6d20746865207a65726f206164604482015264647265737360d81b606482015260840161073e565b6001600160a01b0382166115dd5760405162461bcd60e51b815260206004820152602360248201527f45524332303a207472616e7366657220746f20746865207a65726f206164647260448201526265737360e81b606482015260840161073e565b6001600160a01b038316600090815260208190526040902054818110156116555760405162461bcd60e51b815260206004820152602660248201527f45524332303a207472616e7366657220616d6f756e7420657863656564732062604482015265616c616e636560d01b606482015260840161073e565b61165f8282611d33565b6001600160a01b038086166000908152602081905260408082209390935590851681529081208054849290611695908490611cdc565b92505081905550826001600160a01b0316846001600160a01b03167fddf252ad1be2c89b69c2b068fc378daa952ba7f163c4a11628f55a4df523b3ef846040516116e191815260200190565b60405180910390a350505050565b60006107618284611d14565b60006107618284611cf4565b6001600160a01b0382166117675760405162461bcd60e51b815260206004820152602160248201527f45524332303a206275726e2066726f6d20746865207a65726f206164647265736044820152607360f81b606482015260840161073e565b6001600160a01b038216600090815260208190526040902054818110156117db5760405162461bcd60e51b815260206004820152602260248201527f45524332303a206275726e20616d6f756e7420657863656564732062616c616e604482015261636560f01b606482015260840161073e565b6117e58282611d33565b6001600160a01b03841660009081526020819052604081209190915560028054849290611813908490611d33565b90915550506040518281526000906001600160a01b038516907fddf252ad1be2c89b69c2b068fc378daa952ba7f163c4a11628f55a4df523b3ef9060200161150a565b60006107618284611d33565b60006107618284611cdc565b6040516001600160a01b03831660248201526044810182905261096290849063a9059cbb60e01b906064015b60408051601f198184030181529190526020810180516001600160e01b03166001600160e01b0319909316929092179091526119ee565b6040516001600160a01b03808516602483015283166044820152606481018290526119099085906323b872dd60e01b9060840161189a565b50505050565b6001600160a01b0382166119655760405162461bcd60e51b815260206004820152601f60248201527f45524332303a206d696e7420746f20746865207a65726f206164647265737300604482015260640161073e565b80600260008282546119779190611cdc565b90915550506001600160a01b038216600090815260208190526040812080548392906119a4908490611cdc565b90915550506040518181526001600160a01b038316906000907fddf252ad1be2c89b69c2b068fc378daa952ba7f163c4a11628f55a4df523b3ef9060200160405180910390a35050565b6000611a43826040518060400160405280602081526020017f5361666545524332303a206c6f772d6c6576656c2063616c6c206661696c6564815250856001600160a01b0316611ac09092919063ffffffff16565b8051909150156109625780806020019051810190611a619190611c38565b6109625760405162461bcd60e51b815260206004820152602a60248201527f5361666545524332303a204552433230206f7065726174696f6e20646964206e6044820152691bdd081cdd58d8d9595960b21b606482015260840161073e565b6060611acf8484600085611ad7565b949350505050565b606082471015611b385760405162461bcd60e51b815260206004820152602660248201527f416464726573733a20696e73756666696369656e742062616c616e636520666f6044820152651c8818d85b1b60d21b606482015260840161073e565b843b611b865760405162461bcd60e51b815260206004820152601d60248201527f416464726573733a2063616c6c20746f206e6f6e2d636f6e7472616374000000604482015260640161073e565b600080866001600160a01b03168587604051611ba29190611c58565b60006040518083038185875af1925050503d8060008114611bdf576040519150601f19603f3d011682016040523d82523d6000602084013e611be4565b606091505b5091509150611bf4828286611bff565b979650505050505050565b60608315611c0e575081610761565b825115611c1e5782518084602001fd5b8160405162461bcd60e51b815260040161073e9190611c74565b600060208284031215611c49578081fd5b81518015158114610761578182fd5b60008251611c6a818460208701611d4a565b9190910192915050565b6020815260008251806020840152611c93816040850160208701611d4a565b601f01601f19169190910160400192915050565b6020808252818101527f4f776e61626c653a2063616c6c6572206973206e6f7420746865206f776e6572604082015260600190565b60008219821115611cef57611cef611db1565b500190565b600082611d0f57634e487b7160e01b81526012600452602481fd5b500490565b6000816000190483118215151615611d2e57611d2e611db1565b500290565b600082821015611d4557611d45611db1565b500390565b60005b83811015611d65578181015183820152602001611d4d565b838111156119095750506000910152565b600181811c90821680611d8a57607f821691505b60208210811415611dab57634e487b7160e01b600052602260045260246000fd5b50919050565b634e487b7160e01b600052601160045260246000fdfe50726f706f73616c206e6f742076616c696420666f722074686973205661756c74a2646970667358221220d8613ac5b309f2cd4ab40ca74dd301e8231ffa6bd3cd0c6abec8a4e757d6288f64736f6c63430008040033",
  "devdoc": {
    "details": "Implementation of a vault to deposit funds for yield optimizing. This is the contract that receives funds and that users interface with. The yield optimizing strategy itself is implemented in a separate 'Strategy.sol' contract.",
    "kind": "dev",
    "methods": {
      "allowance(address,address)": {
        "details": "See {IERC20-allowance}."
      },
      "approve(address,uint256)": {
        "details": "See {IERC20-approve}. Requirements: - `spender` cannot be the zero address."
      },
      "available()": {
        "details": "Custom logic in here for how much the vault allows to be borrowed. We return 100% of tokens for now. Under certain conditions we might want to keep some of the system funds at hand in the vault, instead of putting them to work."
      },
      "balance()": {
        "details": "It calculates the total underlying value of {token} held by the system. It takes into account the vault contract balance, the strategy contract balance  and the balance deployed in other contracts as part of the strategy."
      },
      "balanceOf(address)": {
        "details": "See {IERC20-balanceOf}."
      },
      "constructor": {
        "details": "Sets the value of {token} to the token that the vault will hold as underlying value. It initializes the vault's own 'moo' token. This token is minted when someone does a deposit. It is burned in order to withdraw the corresponding portion of the underlying assets.",
        "params": {
          "_approvalDelay": "the delay before a new strat can be approved.",
          "_name": "the name of the vault token.",
          "_strategy": "the address of the strategy.",
          "_symbol": "the symbol of the vault token."
        }
      },
      "decimals()": {
        "details": "Returns the number of decimals used to get its user representation. For example, if `decimals` equals `2`, a balance of `505` tokens should be displayed to a user as `5,05` (`505 / 10 ** 2`). Tokens usually opt for a value of 18, imitating the relationship between Ether and Wei. This is the value {ERC20} uses, unless this function is overridden; NOTE: This information is only used for _display_ purposes: it in no way affects any of the arithmetic of the contract, including {IERC20-balanceOf} and {IERC20-transfer}."
      },
      "decreaseAllowance(address,uint256)": {
        "details": "Atomically decreases the allowance granted to `spender` by the caller. This is an alternative to {approve} that can be used as a mitigation for problems described in {IERC20-approve}. Emits an {Approval} event indicating the updated allowance. Requirements: - `spender` cannot be the zero address. - `spender` must have allowance for the caller of at least `subtractedValue`."
      },
      "deposit(uint256)": {
        "details": "The entrypoint of funds into the system. People deposit with this function into the vault. The vault is then in charge of sending funds into the strategy."
      },
      "depositAll()": {
        "details": "A helper function to call deposit() with all the sender's funds."
      },
      "earn()": {
        "details": "Function to send funds into the strategy and put them to work. It's primarily called by the vault's deposit() function."
      },
      "getPricePerFullShare()": {
        "details": "Function for various UIs to display the current value of one of our yield tokens. Returns an uint256 with 18 decimals of how much underlying asset one vault share represents."
      },
      "inCaseTokensGetStuck(address)": {
        "details": "Rescues random funds stuck that the strat can't handle.",
        "params": {
          "_token": "address of the token to rescue."
        }
      },
      "increaseAllowance(address,uint256)": {
        "details": "Atomically increases the allowance granted to `spender` by the caller. This is an alternative to {approve} that can be used as a mitigation for problems described in {IERC20-approve}. Emits an {Approval} event indicating the updated allowance. Requirements: - `spender` cannot be the zero address."
      },
      "name()": {
        "details": "Returns the name of the token."
      },
      "owner()": {
        "details": "Returns the address of the current owner."
      },
      "proposeStrat(address)": {
        "details": "Sets the candidate for the new strat to use with this vault.",
        "params": {
          "_implementation": "The address of the candidate strategy."
        }
      },
      "renounceOwnership()": {
        "details": "Leaves the contract without owner. It will not be possible to call `onlyOwner` functions anymore. Can only be called by the current owner. NOTE: Renouncing ownership will leave the contract without an owner, thereby removing any functionality that is only available to the owner."
      },
      "symbol()": {
        "details": "Returns the symbol of the token, usually a shorter version of the name."
      },
      "totalSupply()": {
        "details": "See {IERC20-totalSupply}."
      },
      "transfer(address,uint256)": {
        "details": "See {IERC20-transfer}. Requirements: - `recipient` cannot be the zero address. - the caller must have a balance of at least `amount`."
      },
      "transferFrom(address,address,uint256)": {
        "details": "See {IERC20-transferFrom}. Emits an {Approval} event indicating the updated allowance. This is not required by the EIP. See the note at the beginning of {ERC20}. Requirements: - `sender` and `recipient` cannot be the zero address. - `sender` must have a balance of at least `amount`. - the caller must have allowance for ``sender``'s tokens of at least `amount`."
      },
      "transferOwnership(address)": {
        "details": "Transfers ownership of the contract to a new account (`newOwner`). Can only be called by the current owner."
      },
      "upgradeStrat()": {
        "details": "It switches the active strat for the strat candidate. After upgrading, the candidate implementation is set to the 0x00 address, and proposedTime to a time happening in +100 years for safety."
      },
      "withdraw(uint256)": {
        "details": "Function to exit the system. The vault will withdraw the required tokens from the strategy and pay up the token holder. A proportional number of IOU tokens are burned in the process."
      },
      "withdrawAll()": {
        "details": "A helper function to call withdraw() with all the sender's funds."
      }
    },
    "version": 1
  },
  "userdoc": {
    "kind": "user",
    "methods": {},
    "version": 1
  },
  "storageLayout": {
    "storage": [
      {
        "astId": 1393,
        "contract": "contracts/BIFI/vaults/BeefyVaultV6.sol:BeefyVaultV6",
        "label": "_balances",
        "offset": 0,
        "slot": "0",
        "type": "t_mapping(t_address,t_uint256)"
      },
      {
        "astId": 1399,
        "contract": "contracts/BIFI/vaults/BeefyVaultV6.sol:BeefyVaultV6",
        "label": "_allowances",
        "offset": 0,
        "slot": "1",
        "type": "t_mapping(t_address,t_mapping(t_address,t_uint256))"
      },
      {
        "astId": 1401,
        "contract": "contracts/BIFI/vaults/BeefyVaultV6.sol:BeefyVaultV6",
        "label": "_totalSupply",
        "offset": 0,
        "slot": "2",
        "type": "t_uint256"
      },
      {
        "astId": 1403,
        "contract": "contracts/BIFI/vaults/BeefyVaultV6.sol:BeefyVaultV6",
        "label": "_name",
        "offset": 0,
        "slot": "3",
        "type": "t_string_storage"
      },
      {
        "astId": 1405,
        "contract": "contracts/BIFI/vaults/BeefyVaultV6.sol:BeefyVaultV6",
        "label": "_symbol",
        "offset": 0,
        "slot": "4",
        "type": "t_string_storage"
      },
      {
        "astId": 375,
        "contract": "contracts/BIFI/vaults/BeefyVaultV6.sol:BeefyVaultV6",
        "label": "_owner",
        "offset": 0,
        "slot": "5",
        "type": "t_address"
      },
      {
        "astId": 1348,
        "contract": "contracts/BIFI/vaults/BeefyVaultV6.sol:BeefyVaultV6",
        "label": "_status",
        "offset": 0,
        "slot": "6",
        "type": "t_uint256"
      },
      {
        "astId": 137940,
        "contract": "contracts/BIFI/vaults/BeefyVaultV6.sol:BeefyVaultV6",
        "label": "stratCandidate",
        "offset": 0,
        "slot": "7",
        "type": "t_struct(StratCandidate)137937_storage"
      },
      {
        "astId": 137943,
        "contract": "contracts/BIFI/vaults/BeefyVaultV6.sol:BeefyVaultV6",
        "label": "strategy",
        "offset": 0,
        "slot": "9",
        "type": "t_contract(IStrategy)5830"
      }
    ],
    "types": {
      "t_address": {
        "encoding": "inplace",
        "label": "address",
        "numberOfBytes": "20"
      },
      "t_contract(IStrategy)5830": {
        "encoding": "inplace",
        "label": "contract IStrategy",
        "numberOfBytes": "20"
      },
      "t_mapping(t_address,t_mapping(t_address,t_uint256))": {
        "encoding": "mapping",
        "key": "t_address",
        "label": "mapping(address => mapping(address => uint256))",
        "numberOfBytes": "32",
        "value": "t_mapping(t_address,t_uint256)"
      },
      "t_mapping(t_address,t_uint256)": {
        "encoding": "mapping",
        "key": "t_address",
        "label": "mapping(address => uint256)",
        "numberOfBytes": "32",
        "value": "t_uint256"
      },
      "t_string_storage": {
        "encoding": "bytes",
        "label": "string",
        "numberOfBytes": "32"
      },
      "t_struct(StratCandidate)137937_storage": {
        "encoding": "inplace",
        "label": "struct BeefyVaultV6.StratCandidate",
        "members": [
          {
            "astId": 137934,
            "contract": "contracts/BIFI/vaults/BeefyVaultV6.sol:BeefyVaultV6",
            "label": "implementation",
            "offset": 0,
            "slot": "0",
            "type": "t_address"
          },
          {
            "astId": 137936,
            "contract": "contracts/BIFI/vaults/BeefyVaultV6.sol:BeefyVaultV6",
            "label": "proposedTime",
            "offset": 0,
            "slot": "1",
            "type": "t_uint256"
          }
        ],
        "numberOfBytes": "64"
      },
      "t_uint256": {
        "encoding": "inplace",
        "label": "uint256",
        "numberOfBytes": "32"
      }
    }
  }
}