{
  "address": "0x2D4cf116A59e24Dd0aB8821c93AE87658a9483b6",
  "abi": [
    {
      "inputs": [
        {
          "internalType": "contract IStrategy",
          "name": "_strategy",
          "type": "address"
        },
        {
          "internalType": "string",
          "name": "_name",
          "type": "string"
        },
        {
          "internalType": "string",
          "name": "_symbol",
          "type": "string"
        },
        {
          "internalType": "uint256",
          "name": "_approvalDelay",
          "type": "uint256"
        }
      ],
      "stateMutability": "nonpayable",
      "type": "constructor"
    },
    {
      "anonymous": false,
      "inputs": [
        {
          "indexed": true,
          "internalType": "address",
          "name": "owner",
          "type": "address"
        },
        {
          "indexed": true,
          "internalType": "address",
          "name": "spender",
          "type": "address"
        },
        {
          "indexed": false,
          "internalType": "uint256",
          "name": "value",
          "type": "uint256"
        }
      ],
      "name": "Approval",
      "type": "event"
    },
    {
      "anonymous": false,
      "inputs": [
        {
          "indexed": false,
          "internalType": "address",
          "name": "implementation",
          "type": "address"
        }
      ],
      "name": "NewStratCandidate",
      "type": "event"
    },
    {
      "anonymous": false,
      "inputs": [
        {
          "indexed": true,
          "internalType": "address",
          "name": "previousOwner",
          "type": "address"
        },
        {
          "indexed": true,
          "internalType": "address",
          "name": "newOwner",
          "type": "address"
        }
      ],
      "name": "OwnershipTransferred",
      "type": "event"
    },
    {
      "anonymous": false,
      "inputs": [
        {
          "indexed": true,
          "internalType": "address",
          "name": "from",
          "type": "address"
        },
        {
          "indexed": true,
          "internalType": "address",
          "name": "to",
          "type": "address"
        },
        {
          "indexed": false,
          "internalType": "uint256",
          "name": "value",
          "type": "uint256"
        }
      ],
      "name": "Transfer",
      "type": "event"
    },
    {
      "anonymous": false,
      "inputs": [
        {
          "indexed": false,
          "internalType": "address",
          "name": "implementation",
          "type": "address"
        }
      ],
      "name": "UpgradeStrat",
      "type": "event"
    },
    {
      "inputs": [
        {
          "internalType": "address",
          "name": "owner",
          "type": "address"
        },
        {
          "internalType": "address",
          "name": "spender",
          "type": "address"
        }
      ],
      "name": "allowance",
      "outputs": [
        {
          "internalType": "uint256",
          "name": "",
          "type": "uint256"
        }
      ],
      "stateMutability": "view",
      "type": "function"
    },
    {
      "inputs": [],
      "name": "approvalDelay",
      "outputs": [
        {
          "internalType": "uint256",
          "name": "",
          "type": "uint256"
        }
      ],
      "stateMutability": "view",
      "type": "function"
    },
    {
      "inputs": [
        {
          "internalType": "address",
          "name": "spender",
          "type": "address"
        },
        {
          "internalType": "uint256",
          "name": "amount",
          "type": "uint256"
        }
      ],
      "name": "approve",
      "outputs": [
        {
          "internalType": "bool",
          "name": "",
          "type": "bool"
        }
      ],
      "stateMutability": "nonpayable",
      "type": "function"
    },
    {
      "inputs": [],
      "name": "available",
      "outputs": [
        {
          "internalType": "uint256",
          "name": "",
          "type": "uint256"
        }
      ],
      "stateMutability": "view",
      "type": "function"
    },
    {
      "inputs": [],
      "name": "balance",
      "outputs": [
        {
          "internalType": "uint256",
          "name": "",
          "type": "uint256"
        }
      ],
      "stateMutability": "view",
      "type": "function"
    },
    {
      "inputs": [
        {
          "internalType": "address",
          "name": "account",
          "type": "address"
        }
      ],
      "name": "balanceOf",
      "outputs": [
        {
          "internalType": "uint256",
          "name": "",
          "type": "uint256"
        }
      ],
      "stateMutability": "view",
      "type": "function"
    },
    {
      "inputs": [],
      "name": "decimals",
      "outputs": [
        {
          "internalType": "uint8",
          "name": "",
          "type": "uint8"
        }
      ],
      "stateMutability": "view",
      "type": "function"
    },
    {
      "inputs": [
        {
          "internalType": "address",
          "name": "spender",
          "type": "address"
        },
        {
          "internalType": "uint256",
          "name": "subtractedValue",
          "type": "uint256"
        }
      ],
      "name": "decreaseAllowance",
      "outputs": [
        {
          "internalType": "bool",
          "name": "",
          "type": "bool"
        }
      ],
      "stateMutability": "nonpayable",
      "type": "function"
    },
    {
      "inputs": [
        {
          "internalType": "uint256",
          "name": "_amount",
          "type": "uint256"
        }
      ],
      "name": "deposit",
      "outputs": [],
      "stateMutability": "nonpayable",
      "type": "function"
    },
    {
      "inputs": [],
      "name": "depositAll",
      "outputs": [],
      "stateMutability": "nonpayable",
      "type": "function"
    },
    {
      "inputs": [],
      "name": "earn",
      "outputs": [],
      "stateMutability": "nonpayable",
      "type": "function"
    },
    {
      "inputs": [],
      "name": "getPricePerFullShare",
      "outputs": [
        {
          "internalType": "uint256",
          "name": "",
          "type": "uint256"
        }
      ],
      "stateMutability": "view",
      "type": "function"
    },
    {
      "inputs": [
        {
          "internalType": "address",
          "name": "_token",
          "type": "address"
        }
      ],
      "name": "inCaseTokensGetStuck",
      "outputs": [],
      "stateMutability": "nonpayable",
      "type": "function"
    },
    {
      "inputs": [
        {
          "internalType": "address",
          "name": "spender",
          "type": "address"
        },
        {
          "internalType": "uint256",
          "name": "addedValue",
          "type": "uint256"
        }
      ],
      "name": "increaseAllowance",
      "outputs": [
        {
          "internalType": "bool",
          "name": "",
          "type": "bool"
        }
      ],
      "stateMutability": "nonpayable",
      "type": "function"
    },
    {
      "inputs": [],
      "name": "name",
      "outputs": [
        {
          "internalType": "string",
          "name": "",
          "type": "string"
        }
      ],
      "stateMutability": "view",
      "type": "function"
    },
    {
      "inputs": [],
      "name": "owner",
      "outputs": [
        {
          "internalType": "address",
          "name": "",
          "type": "address"
        }
      ],
      "stateMutability": "view",
      "type": "function"
    },
    {
      "inputs": [
        {
          "internalType": "address",
          "name": "_implementation",
          "type": "address"
        }
      ],
      "name": "proposeStrat",
      "outputs": [],
      "stateMutability": "nonpayable",
      "type": "function"
    },
    {
      "inputs": [],
      "name": "renounceOwnership",
      "outputs": [],
      "stateMutability": "nonpayable",
      "type": "function"
    },
    {
      "inputs": [],
      "name": "stratCandidate",
      "outputs": [
        {
          "internalType": "address",
          "name": "implementation",
          "type": "address"
        },
        {
          "internalType": "uint256",
          "name": "proposedTime",
          "type": "uint256"
        }
      ],
      "stateMutability": "view",
      "type": "function"
    },
    {
      "inputs": [],
      "name": "strategy",
      "outputs": [
        {
          "internalType": "contract IStrategy",
          "name": "",
          "type": "address"
        }
      ],
      "stateMutability": "view",
      "type": "function"
    },
    {
      "inputs": [],
      "name": "symbol",
      "outputs": [
        {
          "internalType": "string",
          "name": "",
          "type": "string"
        }
      ],
      "stateMutability": "view",
      "type": "function"
    },
    {
      "inputs": [],
      "name": "totalSupply",
      "outputs": [
        {
          "internalType": "uint256",
          "name": "",
          "type": "uint256"
        }
      ],
      "stateMutability": "view",
      "type": "function"
    },
    {
      "inputs": [
        {
          "internalType": "address",
          "name": "recipient",
          "type": "address"
        },
        {
          "internalType": "uint256",
          "name": "amount",
          "type": "uint256"
        }
      ],
      "name": "transfer",
      "outputs": [
        {
          "internalType": "bool",
          "name": "",
          "type": "bool"
        }
      ],
      "stateMutability": "nonpayable",
      "type": "function"
    },
    {
      "inputs": [
        {
          "internalType": "address",
          "name": "sender",
          "type": "address"
        },
        {
          "internalType": "address",
          "name": "recipient",
          "type": "address"
        },
        {
          "internalType": "uint256",
          "name": "amount",
          "type": "uint256"
        }
      ],
      "name": "transferFrom",
      "outputs": [
        {
          "internalType": "bool",
          "name": "",
          "type": "bool"
        }
      ],
      "stateMutability": "nonpayable",
      "type": "function"
    },
    {
      "inputs": [
        {
          "internalType": "address",
          "name": "newOwner",
          "type": "address"
        }
      ],
      "name": "transferOwnership",
      "outputs": [],
      "stateMutability": "nonpayable",
      "type": "function"
    },
    {
      "inputs": [],
      "name": "upgradeStrat",
      "outputs": [],
      "stateMutability": "nonpayable",
      "type": "function"
    },
    {
      "inputs": [],
      "name": "want",
      "outputs": [
        {
          "internalType": "contract IERC20",
          "name": "",
          "type": "address"
        }
      ],
      "stateMutability": "view",
      "type": "function"
    },
    {
      "inputs": [
        {
          "internalType": "uint256",
          "name": "_shares",
          "type": "uint256"
        }
      ],
      "name": "withdraw",
      "outputs": [],
      "stateMutability": "nonpayable",
      "type": "function"
    },
    {
      "inputs": [],
      "name": "withdrawAll",
      "outputs": [],
      "stateMutability": "nonpayable",
      "type": "function"
    }
  ],
  "transactionHash": "0x3b178c40d585f1541bccaf10568799aceb08588207d762dadbf0e9fdf1986516",
  "args": [
    "0x4E0e85692b239e57128103b4Ad6f39Ac3BBE0c15",
    "Moo Quick FFF-QUICK",
    "mooQuickFFF-QUICK",
    21600
  ],
  "solcInputHash": "afe250789b257e099b62c841271a081f",
  "bytecode": "0x60a06040523480156200001157600080fd5b506040516200247738038062002477833981810160405260808110156200003757600080fd5b8151602083018051604051929492938301929190846401000000008211156200005f57600080fd5b9083019060208201858111156200007557600080fd5b82516401000000008111828201881017156200009057600080fd5b82525081516020918201929091019080838360005b83811015620000bf578181015183820152602001620000a5565b50505050905090810190601f168015620000ed5780820380516001836020036101000a031916815260200191505b50604052602001805160405193929190846401000000008211156200011157600080fd5b9083019060208201858111156200012757600080fd5b82516401000000008111828201881017156200014257600080fd5b82525081516020918201929091019080838360005b838110156200017157818101518382015260200162000157565b50505050905090810190601f1680156200019f5780820380516001836020036101000a031916815260200191505b5060405260209081015185519093508592508491620001c49160039185019062000281565b508051620001da90600490602084019062000281565b50506005805460ff19166012179055506000620001f66200027d565b60058054610100600160a81b0319166101006001600160a01b03841690810291909117909155604051919250906000907f8be0079c531659141344cd1fd0a4f28419497f9722a3daafe3b4186f6b6457e0908290a3506001600655600980546001600160a01b0319166001600160a01b03959095169490941790935550506080526200031d565b3390565b828054600181600116156101000203166002900490600052602060002090601f016020900481019282601f10620002c457805160ff1916838001178555620002f4565b82800160010185558215620002f4579182015b82811115620002f4578251825591602001919060010190620002d7565b506200030292915062000306565b5090565b5b8082111562000302576000815560010162000307565b60805161213a6200033d600039806112255280611309525061213a6000f3fe608060405234801561001057600080fd5b50600436106101cf5760003560e01c8063853828b611610104578063b6b55f25116100a2578063def68a9c11610071578063def68a9c146104d8578063e2d1e75c146104fe578063e668524414610506578063f2fde38b1461050e576101cf565b8063b6b55f251461047d578063d389800f1461049a578063dd62ed3e146104a2578063de5f6268146104d0576101cf565b8063a457c2d7116100de578063a457c2d714610415578063a8c62e7614610441578063a9059cbb14610449578063b69ef8a814610475576101cf565b8063853828b6146103fd5780638da5cb5b1461040557806395d89b411461040d576101cf565b8063395093511161017157806370a082311161014b57806370a082311461039c578063715018a6146103c257806376dfabb8146103ca57806377c7b8fc146103f5576101cf565b8063395093511461034257806348a0d7541461036e5780635b12ff9b14610376576101cf565b80631f1fcd51116101ad5780631f1fcd51146102ab57806323b872dd146102cf5780632e1a7d4d14610305578063313ce56714610324576101cf565b806306fdde03146101d4578063095ea7b31461025157806318160ddd14610291575b600080fd5b6101dc610534565b6040805160208082528351818301528351919283929083019185019080838360005b838110156102165781810151838201526020016101fe565b50505050905090810190601f1680156102435780820380516001836020036101000a031916815260200191505b509250505060405180910390f35b61027d6004803603604081101561026757600080fd5b506001600160a01b0381351690602001356105ca565b604080519115158252519081900360200190f35b6102996105e8565b60408051918252519081900360200190f35b6102b36105ee565b604080516001600160a01b039092168252519081900360200190f35b61027d600480360360608110156102e557600080fd5b506001600160a01b03813581169160208101359091169060400135610664565b6103226004803603602081101561031b57600080fd5b50356106ec565b005b61032c6108ea565b6040805160ff9092168252519081900360200190f35b61027d6004803603604081101561035857600080fd5b506001600160a01b0381351690602001356108f3565b610299610941565b6103226004803603602081101561038c57600080fd5b50356001600160a01b0316610997565b610299600480360360208110156103b257600080fd5b50356001600160a01b0316610b0c565b610322610b27565b6103d2610bd9565b604080516001600160a01b03909316835260208301919091528051918290030190f35b610299610bee565b610322610c30565b6102b3610c43565b6101dc610c57565b61027d6004803603604081101561042b57600080fd5b506001600160a01b038135169060200135610cb8565b6102b3610d20565b61027d6004803603604081101561045f57600080fd5b506001600160a01b038135169060200135610d2f565b610299610d43565b6103226004803603602081101561049357600080fd5b5035610e48565b610322610f91565b610299600480360360408110156104b857600080fd5b506001600160a01b0381358116916020013516611022565b61032261104d565b610322600480360360208110156104ee57600080fd5b50356001600160a01b03166110d5565b610299611223565b610322611247565b6103226004803603602081101561052457600080fd5b50356001600160a01b0316611453565b60038054604080516020601f60026000196101006001881615020190951694909404938401819004810282018101909252828152606093909290918301828280156105c05780601f10610595576101008083540402835291602001916105c0565b820191906000526020600020905b8154815290600101906020018083116105a357829003601f168201915b5050505050905090565b60006105de6105d7611561565b8484611565565b5060015b92915050565b60025490565b60095460408051631f1fcd5160e01b815290516000926001600160a01b031691631f1fcd51916004808301926020929190829003018186803b15801561063357600080fd5b505afa158015610647573d6000803e3d6000fd5b505050506040513d602081101561065d57600080fd5b5051905090565b6000610671848484611651565b6106e18461067d611561565b6106dc85604051806060016040528060288152602001612004602891396001600160a01b038a166000908152600160205260408120906106bb611561565b6001600160a01b0316815260208101919091526040016000205491906117ac565b611565565b5060015b9392505050565b60006107116106f96105e8565b61070b84610705610d43565b90611843565b9061189c565b905061071d3383611903565b60006107276105ee565b6001600160a01b03166370a08231306040518263ffffffff1660e01b815260040180826001600160a01b0316815260200191505060206040518083038186803b15801561077357600080fd5b505afa158015610787573d6000803e3d6000fd5b505050506040513d602081101561079d57600080fd5b50519050818110156108c85760006107b583836119ff565b60095460408051632e1a7d4d60e01b81526004810184905290519293506001600160a01b0390911691632e1a7d4d9160248082019260009290919082900301818387803b15801561080557600080fd5b505af1158015610819573d6000803e3d6000fd5b5050505060006108276105ee565b6001600160a01b03166370a08231306040518263ffffffff1660e01b815260040180826001600160a01b0316815260200191505060206040518083038186803b15801561087357600080fd5b505afa158015610887573d6000803e3d6000fd5b505050506040513d602081101561089d57600080fd5b5051905060006108ad82856119ff565b9050828110156108c4576108c18482611a5c565b94505b5050505b6108e533836108d56105ee565b6001600160a01b03169190611ab6565b505050565b60055460ff1690565b60006105de610900611561565b846106dc8560016000610911611561565b6001600160a01b03908116825260208083019390935260409182016000908120918c168152925290205490611a5c565b600061094b6105ee565b6001600160a01b03166370a08231306040518263ffffffff1660e01b815260040180826001600160a01b0316815260200191505060206040518083038186803b15801561063357600080fd5b61099f611561565b6001600160a01b03166109b0610c43565b6001600160a01b0316146109f9576040805162461bcd60e51b8152602060048201819052602482015260008051602061202c833981519152604482015290519081900360640190fd5b806001600160a01b031663fbfa77cf6040518163ffffffff1660e01b815260040160206040518083038186803b158015610a3257600080fd5b505afa158015610a46573d6000803e3d6000fd5b505050506040513d6020811015610a5c57600080fd5b50516001600160a01b03163014610aa45760405162461bcd60e51b8152600401808060200182810382526021815260200180611fc26021913960400191505060405180910390fd5b6040805180820182526001600160a01b038316808252426020928301819052600780546001600160a01b03191683179055600855825190815291517f1aae2ec5647db56da2d513de40528ba3565c6057525637050660c4323bbac7df9281900390910190a150565b6001600160a01b031660009081526020819052604090205490565b610b2f611561565b6001600160a01b0316610b40610c43565b6001600160a01b031614610b89576040805162461bcd60e51b8152602060048201819052602482015260008051602061202c833981519152604482015290519081900360640190fd5b60055460405160009161010090046001600160a01b0316907f8be0079c531659141344cd1fd0a4f28419497f9722a3daafe3b4186f6b6457e0908390a360058054610100600160a81b0319169055565b6007546008546001600160a01b039091169082565b6000610bf86105e8565b15610c2157610c1c610c086105e8565b61070b670de0b6b3a7640000610705610d43565b610c2b565b670de0b6b3a76400005b905090565b610c41610c3c33610b0c565b6106ec565b565b60055461010090046001600160a01b031690565b60048054604080516020601f60026000196101006001881615020190951694909404938401819004810282018101909252828152606093909290918301828280156105c05780601f10610595576101008083540402835291602001916105c0565b60006105de610cc5611561565b846106dc856040518060600160405280602581526020016120e06025913960016000610cef611561565b6001600160a01b03908116825260208083019390935260409182016000908120918d168152925290205491906117ac565b6009546001600160a01b031681565b60006105de610d3c611561565b8484611651565b6000610c2b600960009054906101000a90046001600160a01b03166001600160a01b031663722713f76040518163ffffffff1660e01b815260040160206040518083038186803b158015610d9657600080fd5b505afa158015610daa573d6000803e3d6000fd5b505050506040513d6020811015610dc057600080fd5b5051610dca6105ee565b6001600160a01b03166370a08231306040518263ffffffff1660e01b815260040180826001600160a01b0316815260200191505060206040518083038186803b158015610e1657600080fd5b505afa158015610e2a573d6000803e3d6000fd5b505050506040513d6020811015610e4057600080fd5b505190611a5c565b60026006541415610ea0576040805162461bcd60e51b815260206004820152601f60248201527f5265656e7472616e637947756172643a207265656e7472616e742063616c6c00604482015290519081900360640190fd5b600260065560095460408051632b9ff78560e11b815290516001600160a01b039092169163573fef0a9160048082019260009290919082900301818387803b158015610eeb57600080fd5b505af1158015610eff573d6000803e3d6000fd5b505050506000610f0d610d43565b9050610f2e333084610f1d6105ee565b6001600160a01b0316929190611b08565b610f36610f91565b6000610f40610d43565b9050610f4c81836119ff565b92506000610f586105e8565b610f63575082610f7c565b610f798361070b610f726105e8565b8790611843565b90505b610f863382611b68565b505060016006555050565b6000610f9b610941565b600954909150610fb7906001600160a01b0316826108d56105ee565b600960009054906101000a90046001600160a01b03166001600160a01b031663d0e30db06040518163ffffffff1660e01b8152600401600060405180830381600087803b15801561100757600080fd5b505af115801561101b573d6000803e3d6000fd5b5050505050565b6001600160a01b03918216600090815260016020908152604080832093909416825291909152205490565b610c416110586105ee565b6001600160a01b03166370a08231336040518263ffffffff1660e01b815260040180826001600160a01b0316815260200191505060206040518083038186803b1580156110a457600080fd5b505afa1580156110b8573d6000803e3d6000fd5b505050506040513d60208110156110ce57600080fd5b5051610e48565b6110dd611561565b6001600160a01b03166110ee610c43565b6001600160a01b031614611137576040805162461bcd60e51b8152602060048201819052602482015260008051602061202c833981519152604482015290519081900360640190fd5b61113f6105ee565b6001600160a01b0316816001600160a01b0316141561118e576040805162461bcd60e51b815260206004820152600660248201526510ba37b5b2b760d11b604482015290519081900360640190fd5b6000816001600160a01b03166370a08231306040518263ffffffff1660e01b815260040180826001600160a01b0316815260200191505060206040518083038186803b1580156111dd57600080fd5b505afa1580156111f1573d6000803e3d6000fd5b505050506040513d602081101561120757600080fd5b5051905061121f6001600160a01b0383163383611ab6565b5050565b7f000000000000000000000000000000000000000000000000000000000000000081565b61124f611561565b6001600160a01b0316611260610c43565b6001600160a01b0316146112a9576040805162461bcd60e51b8152602060048201819052602482015260008051602061202c833981519152604482015290519081900360640190fd5b6007546001600160a01b03166112fe576040805162461bcd60e51b81526020600482015260156024820152745468657265206973206e6f2063616e64696461746560581b604482015290519081900360640190fd5b600854429061132d907f0000000000000000000000000000000000000000000000000000000000000000611a5c565b10611376576040805162461bcd60e51b815260206004820152601460248201527311195b185e481a185cc81b9bdd081c185cdcd95960621b604482015290519081900360640190fd5b600754604080516001600160a01b039092168252517f7f37d440e85aba7fbf641c4bda5ca4ef669a80bffaacde2aa8d9feb1b048c82c9181900360200190a1600960009054906101000a90046001600160a01b03166001600160a01b031663fb6177876040518163ffffffff1660e01b8152600401600060405180830381600087803b15801561140557600080fd5b505af1158015611419573d6000803e3d6000fd5b505060078054600980546001600160a01b03199081166001600160a01b03841617909155169055505064012a05f200600855610c41610f91565b61145b611561565b6001600160a01b031661146c610c43565b6001600160a01b0316146114b5576040805162461bcd60e51b8152602060048201819052602482015260008051602061202c833981519152604482015290519081900360640190fd5b6001600160a01b0381166114fa5760405162461bcd60e51b8152600401808060200182810382526026815260200180611f2e6026913960400191505060405180910390fd5b6005546040516001600160a01b0380841692610100900416907f8be0079c531659141344cd1fd0a4f28419497f9722a3daafe3b4186f6b6457e090600090a3600580546001600160a01b0390921661010002610100600160a81b0319909216919091179055565b3390565b6001600160a01b0383166115aa5760405162461bcd60e51b81526004018080602001828103825260248152602001806120926024913960400191505060405180910390fd5b6001600160a01b0382166115ef5760405162461bcd60e51b8152600401808060200182810382526022815260200180611f546022913960400191505060405180910390fd5b6001600160a01b03808416600081815260016020908152604080832094871680845294825291829020859055815185815291517f8c5be1e5ebec7d5bd14f71427d1e84f3dd0314c0f7b2291e5b200ac8c7c3b9259281900390910190a3505050565b6001600160a01b0383166116965760405162461bcd60e51b815260040180806020018281038252602581526020018061206d6025913960400191505060405180910390fd5b6001600160a01b0382166116db5760405162461bcd60e51b8152600401808060200182810382526023815260200180611ee96023913960400191505060405180910390fd5b6116e68383836108e5565b61172381604051806060016040528060268152602001611f76602691396001600160a01b03861660009081526020819052604090205491906117ac565b6001600160a01b0380851660009081526020819052604080822093909355908416815220546117529082611a5c565b6001600160a01b038084166000818152602081815260409182902094909455805185815290519193928716927fddf252ad1be2c89b69c2b068fc378daa952ba7f163c4a11628f55a4df523b3ef92918290030190a3505050565b6000818484111561183b5760405162461bcd60e51b81526004018080602001828103825283818151815260200191508051906020019080838360005b838110156118005781810151838201526020016117e8565b50505050905090810190601f16801561182d5780820380516001836020036101000a031916815260200191505b509250505060405180910390fd5b505050900390565b600082611852575060006105e2565b8282028284828161185f57fe5b04146106e55760405162461bcd60e51b8152600401808060200182810382526021815260200180611fe36021913960400191505060405180910390fd5b60008082116118f2576040805162461bcd60e51b815260206004820152601a60248201527f536166654d6174683a206469766973696f6e206279207a65726f000000000000604482015290519081900360640190fd5b8183816118fb57fe5b049392505050565b6001600160a01b0382166119485760405162461bcd60e51b815260040180806020018281038252602181526020018061204c6021913960400191505060405180910390fd5b611954826000836108e5565b61199181604051806060016040528060228152602001611f0c602291396001600160a01b03851660009081526020819052604090205491906117ac565b6001600160a01b0383166000908152602081905260409020556002546119b790826119ff565b6002556040805182815290516000916001600160a01b038516917fddf252ad1be2c89b69c2b068fc378daa952ba7f163c4a11628f55a4df523b3ef9181900360200190a35050565b600082821115611a56576040805162461bcd60e51b815260206004820152601e60248201527f536166654d6174683a207375627472616374696f6e206f766572666c6f770000604482015290519081900360640190fd5b50900390565b6000828201838110156106e5576040805162461bcd60e51b815260206004820152601b60248201527f536166654d6174683a206164646974696f6e206f766572666c6f770000000000604482015290519081900360640190fd5b604080516001600160a01b038416602482015260448082018490528251808303909101815260649091019091526020810180516001600160e01b031663a9059cbb60e01b1790526108e5908490611c58565b604080516001600160a01b0380861660248301528416604482015260648082018490528251808303909101815260849091019091526020810180516001600160e01b03166323b872dd60e01b179052611b62908590611c58565b50505050565b6001600160a01b038216611bc3576040805162461bcd60e51b815260206004820152601f60248201527f45524332303a206d696e7420746f20746865207a65726f206164647265737300604482015290519081900360640190fd5b611bcf600083836108e5565b600254611bdc9082611a5c565b6002556001600160a01b038216600090815260208190526040902054611c029082611a5c565b6001600160a01b0383166000818152602081815260408083209490945583518581529351929391927fddf252ad1be2c89b69c2b068fc378daa952ba7f163c4a11628f55a4df523b3ef9281900390910190a35050565b6060611cad826040518060400160405280602081526020017f5361666545524332303a206c6f772d6c6576656c2063616c6c206661696c6564815250856001600160a01b0316611d099092919063ffffffff16565b8051909150156108e557808060200190516020811015611ccc57600080fd5b50516108e55760405162461bcd60e51b815260040180806020018281038252602a8152602001806120b6602a913960400191505060405180910390fd5b6060611d188484600085611d20565b949350505050565b606082471015611d615760405162461bcd60e51b8152600401808060200182810382526026815260200180611f9c6026913960400191505060405180910390fd5b611d6a85611e7c565b611dbb576040805162461bcd60e51b815260206004820152601d60248201527f416464726573733a2063616c6c20746f206e6f6e2d636f6e7472616374000000604482015290519081900360640190fd5b60006060866001600160a01b031685876040518082805190602001908083835b60208310611dfa5780518252601f199092019160209182019101611ddb565b6001836020036101000a03801982511681845116808217855250505050505090500191505060006040518083038185875af1925050503d8060008114611e5c576040519150601f19603f3d011682016040523d82523d6000602084013e611e61565b606091505b5091509150611e71828286611e82565b979650505050505050565b3b151590565b60608315611e915750816106e5565b825115611ea15782518084602001fd5b60405162461bcd60e51b81526020600482018181528451602484015284518593919283926044019190850190808383600083156118005781810151838201526020016117e856fe45524332303a207472616e7366657220746f20746865207a65726f206164647265737345524332303a206275726e20616d6f756e7420657863656564732062616c616e63654f776e61626c653a206e6577206f776e657220697320746865207a65726f206164647265737345524332303a20617070726f766520746f20746865207a65726f206164647265737345524332303a207472616e7366657220616d6f756e7420657863656564732062616c616e6365416464726573733a20696e73756666696369656e742062616c616e636520666f722063616c6c50726f706f73616c206e6f742076616c696420666f722074686973205661756c74536166654d6174683a206d756c7469706c69636174696f6e206f766572666c6f7745524332303a207472616e7366657220616d6f756e74206578636565647320616c6c6f77616e63654f776e61626c653a2063616c6c6572206973206e6f7420746865206f776e657245524332303a206275726e2066726f6d20746865207a65726f206164647265737345524332303a207472616e736665722066726f6d20746865207a65726f206164647265737345524332303a20617070726f76652066726f6d20746865207a65726f20616464726573735361666545524332303a204552433230206f7065726174696f6e20646964206e6f74207375636365656445524332303a2064656372656173656420616c6c6f77616e63652062656c6f77207a65726fa264697066735822122059b597aee16a43665f15d5d42eb7b703cab887146349ecb42179c5b384c54e4664736f6c634300060c0033",
  "devdoc": {
    "details": "Implementation of a vault to deposit funds for yield optimizing. This is the contract that receives funds and that users interface with. The yield optimizing strategy itself is implemented in a separate 'Strategy.sol' contract.",
    "kind": "dev",
    "methods": {
      "allowance(address,address)": {
        "details": "See {IERC20-allowance}."
      },
      "approve(address,uint256)": {
        "details": "See {IERC20-approve}. Requirements: - `spender` cannot be the zero address."
      },
      "available()": {
        "details": "Custom logic in here for how much the vault allows to be borrowed. We return 100% of tokens for now. Under certain conditions we might want to keep some of the system funds at hand in the vault, instead of putting them to work."
      },
      "balance()": {
        "details": "It calculates the total underlying value of {token} held by the system. It takes into account the vault contract balance, the strategy contract balance  and the balance deployed in other contracts as part of the strategy."
      },
      "balanceOf(address)": {
        "details": "See {IERC20-balanceOf}."
      },
      "constructor": {
        "details": "Sets the value of {token} to the token that the vault will hold as underlying value. It initializes the vault's own 'moo' token. This token is minted when someone does a deposit. It is burned in order to withdraw the corresponding portion of the underlying assets.",
        "params": {
          "_approvalDelay": "the delay before a new strat can be approved.",
          "_name": "the name of the vault token.",
          "_strategy": "the address of the strategy.",
          "_symbol": "the symbol of the vault token."
        }
      },
      "decimals()": {
        "details": "Returns the number of decimals used to get its user representation. For example, if `decimals` equals `2`, a balance of `505` tokens should be displayed to a user as `5,05` (`505 / 10 ** 2`). Tokens usually opt for a value of 18, imitating the relationship between Ether and Wei. This is the value {ERC20} uses, unless {_setupDecimals} is called. NOTE: This information is only used for _display_ purposes: it in no way affects any of the arithmetic of the contract, including {IERC20-balanceOf} and {IERC20-transfer}."
      },
      "decreaseAllowance(address,uint256)": {
        "details": "Atomically decreases the allowance granted to `spender` by the caller. This is an alternative to {approve} that can be used as a mitigation for problems described in {IERC20-approve}. Emits an {Approval} event indicating the updated allowance. Requirements: - `spender` cannot be the zero address. - `spender` must have allowance for the caller of at least `subtractedValue`."
      },
      "deposit(uint256)": {
        "details": "The entrypoint of funds into the system. People deposit with this function into the vault. The vault is then in charge of sending funds into the strategy."
      },
      "depositAll()": {
        "details": "A helper function to call deposit() with all the sender's funds."
      },
      "earn()": {
        "details": "Function to send funds into the strategy and put them to work. It's primarily called by the vault's deposit() function."
      },
      "getPricePerFullShare()": {
        "details": "Function for various UIs to display the current value of one of our yield tokens. Returns an uint256 with 18 decimals of how much underlying asset one vault share represents."
      },
      "inCaseTokensGetStuck(address)": {
        "details": "Rescues random funds stuck that the strat can't handle.",
        "params": {
          "_token": "address of the token to rescue."
        }
      },
      "increaseAllowance(address,uint256)": {
        "details": "Atomically increases the allowance granted to `spender` by the caller. This is an alternative to {approve} that can be used as a mitigation for problems described in {IERC20-approve}. Emits an {Approval} event indicating the updated allowance. Requirements: - `spender` cannot be the zero address."
      },
      "name()": {
        "details": "Returns the name of the token."
      },
      "owner()": {
        "details": "Returns the address of the current owner."
      },
      "proposeStrat(address)": {
        "details": "Sets the candidate for the new strat to use with this vault.",
        "params": {
          "_implementation": "The address of the candidate strategy.  "
        }
      },
      "renounceOwnership()": {
        "details": "Leaves the contract without owner. It will not be possible to call `onlyOwner` functions anymore. Can only be called by the current owner. NOTE: Renouncing ownership will leave the contract without an owner, thereby removing any functionality that is only available to the owner."
      },
      "symbol()": {
        "details": "Returns the symbol of the token, usually a shorter version of the name."
      },
      "totalSupply()": {
        "details": "See {IERC20-totalSupply}."
      },
      "transfer(address,uint256)": {
        "details": "See {IERC20-transfer}. Requirements: - `recipient` cannot be the zero address. - the caller must have a balance of at least `amount`."
      },
      "transferFrom(address,address,uint256)": {
        "details": "See {IERC20-transferFrom}. Emits an {Approval} event indicating the updated allowance. This is not required by the EIP. See the note at the beginning of {ERC20}. Requirements: - `sender` and `recipient` cannot be the zero address. - `sender` must have a balance of at least `amount`. - the caller must have allowance for ``sender``'s tokens of at least `amount`."
      },
      "transferOwnership(address)": {
        "details": "Transfers ownership of the contract to a new account (`newOwner`). Can only be called by the current owner."
      },
      "upgradeStrat()": {
        "details": "It switches the active strat for the strat candidate. After upgrading, the  candidate implementation is set to the 0x00 address, and proposedTime to a time  happening in +100 years for safety. "
      },
      "withdraw(uint256)": {
        "details": "Function to exit the system. The vault will withdraw the required tokens from the strategy and pay up the token holder. A proportional number of IOU tokens are burned in the process."
      },
      "withdrawAll()": {
        "details": "A helper function to call withdraw() with all the sender's funds."
      }
    },
    "version": 1
  },
  "userdoc": {
    "kind": "user",
    "methods": {},
    "version": 1
  },
  "storageLayout": {
    "storage": [
      {
        "astId": 1537,
        "contract": "contracts/BIFI/vaults/BeefyVaultV6.sol:BeefyVaultV6",
        "label": "_balances",
        "offset": 0,
        "slot": "0",
        "type": "t_mapping(t_address,t_uint256)"
      },
      {
        "astId": 1543,
        "contract": "contracts/BIFI/vaults/BeefyVaultV6.sol:BeefyVaultV6",
        "label": "_allowances",
        "offset": 0,
        "slot": "1",
        "type": "t_mapping(t_address,t_mapping(t_address,t_uint256))"
      },
      {
        "astId": 1545,
        "contract": "contracts/BIFI/vaults/BeefyVaultV6.sol:BeefyVaultV6",
        "label": "_totalSupply",
        "offset": 0,
        "slot": "2",
        "type": "t_uint256"
      },
      {
        "astId": 1547,
        "contract": "contracts/BIFI/vaults/BeefyVaultV6.sol:BeefyVaultV6",
        "label": "_name",
        "offset": 0,
        "slot": "3",
        "type": "t_string_storage"
      },
      {
        "astId": 1549,
        "contract": "contracts/BIFI/vaults/BeefyVaultV6.sol:BeefyVaultV6",
        "label": "_symbol",
        "offset": 0,
        "slot": "4",
        "type": "t_string_storage"
      },
      {
        "astId": 1551,
        "contract": "contracts/BIFI/vaults/BeefyVaultV6.sol:BeefyVaultV6",
        "label": "_decimals",
        "offset": 0,
        "slot": "5",
        "type": "t_uint8"
      },
      {
        "astId": 290,
        "contract": "contracts/BIFI/vaults/BeefyVaultV6.sol:BeefyVaultV6",
        "label": "_owner",
        "offset": 1,
        "slot": "5",
        "type": "t_address"
      },
      {
        "astId": 3228,
        "contract": "contracts/BIFI/vaults/BeefyVaultV6.sol:BeefyVaultV6",
        "label": "_status",
        "offset": 0,
        "slot": "6",
        "type": "t_uint256"
      },
      {
        "astId": 127896,
        "contract": "contracts/BIFI/vaults/BeefyVaultV6.sol:BeefyVaultV6",
        "label": "stratCandidate",
        "offset": 0,
        "slot": "7",
        "type": "t_struct(StratCandidate)127894_storage"
      },
      {
        "astId": 127898,
        "contract": "contracts/BIFI/vaults/BeefyVaultV6.sol:BeefyVaultV6",
        "label": "strategy",
        "offset": 0,
        "slot": "9",
        "type": "t_contract(IStrategy)4827"
      }
    ],
    "types": {
      "t_address": {
        "encoding": "inplace",
        "label": "address",
        "numberOfBytes": "20"
      },
      "t_contract(IStrategy)4827": {
        "encoding": "inplace",
        "label": "contract IStrategy",
        "numberOfBytes": "20"
      },
      "t_mapping(t_address,t_mapping(t_address,t_uint256))": {
        "encoding": "mapping",
        "key": "t_address",
        "label": "mapping(address => mapping(address => uint256))",
        "numberOfBytes": "32",
        "value": "t_mapping(t_address,t_uint256)"
      },
      "t_mapping(t_address,t_uint256)": {
        "encoding": "mapping",
        "key": "t_address",
        "label": "mapping(address => uint256)",
        "numberOfBytes": "32",
        "value": "t_uint256"
      },
      "t_string_storage": {
        "encoding": "bytes",
        "label": "string",
        "numberOfBytes": "32"
      },
      "t_struct(StratCandidate)127894_storage": {
        "encoding": "inplace",
        "label": "struct BeefyVaultV6.StratCandidate",
        "members": [
          {
            "astId": 127891,
            "contract": "contracts/BIFI/vaults/BeefyVaultV6.sol:BeefyVaultV6",
            "label": "implementation",
            "offset": 0,
            "slot": "0",
            "type": "t_address"
          },
          {
            "astId": 127893,
            "contract": "contracts/BIFI/vaults/BeefyVaultV6.sol:BeefyVaultV6",
            "label": "proposedTime",
            "offset": 0,
            "slot": "1",
            "type": "t_uint256"
          }
        ],
        "numberOfBytes": "64"
      },
      "t_uint256": {
        "encoding": "inplace",
        "label": "uint256",
        "numberOfBytes": "32"
      },
      "t_uint8": {
        "encoding": "inplace",
        "label": "uint8",
        "numberOfBytes": "1"
      }
    }
  }
}