{
  "address": "0x4E0e85692b239e57128103b4Ad6f39Ac3BBE0c15",
  "abi": [
    {
      "inputs": [
        {
          "internalType": "address",
          "name": "_want",
          "type": "address"
        },
        {
          "internalType": "address",
          "name": "_rewardPool",
          "type": "address"
        },
        {
          "internalType": "address",
          "name": "_vault",
          "type": "address"
        },
        {
          "internalType": "address",
          "name": "_unirouter",
          "type": "address"
        },
        {
          "internalType": "address",
          "name": "_keeper",
          "type": "address"
        },
        {
          "internalType": "address",
          "name": "_strategist",
          "type": "address"
        },
        {
          "internalType": "address",
          "name": "_beefyFeeRecipient",
          "type": "address"
        },
        {
          "internalType": "address[]",
          "name": "_outputToNativeRoute",
          "type": "address[]"
        },
        {
          "internalType": "address[]",
          "name": "_outputToLp0Route",
          "type": "address[]"
        },
        {
          "internalType": "address[]",
          "name": "_outputToLp1Route",
          "type": "address[]"
        }
      ],
      "stateMutability": "nonpayable",
      "type": "constructor"
    },
    {
      "anonymous": false,
      "inputs": [
        {
          "indexed": true,
          "internalType": "address",
          "name": "previousOwner",
          "type": "address"
        },
        {
          "indexed": true,
          "internalType": "address",
          "name": "newOwner",
          "type": "address"
        }
      ],
      "name": "OwnershipTransferred",
      "type": "event"
    },
    {
      "anonymous": false,
      "inputs": [
        {
          "indexed": false,
          "internalType": "address",
          "name": "account",
          "type": "address"
        }
      ],
      "name": "Paused",
      "type": "event"
    },
    {
      "anonymous": false,
      "inputs": [
        {
          "indexed": true,
          "internalType": "address",
          "name": "harvester",
          "type": "address"
        }
      ],
      "name": "StratHarvest",
      "type": "event"
    },
    {
      "anonymous": false,
      "inputs": [
        {
          "indexed": false,
          "internalType": "address",
          "name": "account",
          "type": "address"
        }
      ],
      "name": "Unpaused",
      "type": "event"
    },
    {
      "inputs": [],
      "name": "MAX_CALL_FEE",
      "outputs": [
        {
          "internalType": "uint256",
          "name": "",
          "type": "uint256"
        }
      ],
      "stateMutability": "view",
      "type": "function"
    },
    {
      "inputs": [],
      "name": "MAX_FEE",
      "outputs": [
        {
          "internalType": "uint256",
          "name": "",
          "type": "uint256"
        }
      ],
      "stateMutability": "view",
      "type": "function"
    },
    {
      "inputs": [],
      "name": "STRATEGIST_FEE",
      "outputs": [
        {
          "internalType": "uint256",
          "name": "",
          "type": "uint256"
        }
      ],
      "stateMutability": "view",
      "type": "function"
    },
    {
      "inputs": [],
      "name": "WITHDRAWAL_FEE_CAP",
      "outputs": [
        {
          "internalType": "uint256",
          "name": "",
          "type": "uint256"
        }
      ],
      "stateMutability": "view",
      "type": "function"
    },
    {
      "inputs": [],
      "name": "WITHDRAWAL_MAX",
      "outputs": [
        {
          "internalType": "uint256",
          "name": "",
          "type": "uint256"
        }
      ],
      "stateMutability": "view",
      "type": "function"
    },
    {
      "inputs": [],
      "name": "balanceOf",
      "outputs": [
        {
          "internalType": "uint256",
          "name": "",
          "type": "uint256"
        }
      ],
      "stateMutability": "view",
      "type": "function"
    },
    {
      "inputs": [],
      "name": "balanceOfPool",
      "outputs": [
        {
          "internalType": "uint256",
          "name": "",
          "type": "uint256"
        }
      ],
      "stateMutability": "view",
      "type": "function"
    },
    {
      "inputs": [],
      "name": "balanceOfWant",
      "outputs": [
        {
          "internalType": "uint256",
          "name": "",
          "type": "uint256"
        }
      ],
      "stateMutability": "view",
      "type": "function"
    },
    {
      "inputs": [],
      "name": "beefyFee",
      "outputs": [
        {
          "internalType": "uint256",
          "name": "",
          "type": "uint256"
        }
      ],
      "stateMutability": "view",
      "type": "function"
    },
    {
      "inputs": [],
      "name": "beefyFeeRecipient",
      "outputs": [
        {
          "internalType": "address",
          "name": "",
          "type": "address"
        }
      ],
      "stateMutability": "view",
      "type": "function"
    },
    {
      "inputs": [],
      "name": "beforeDeposit",
      "outputs": [],
      "stateMutability": "nonpayable",
      "type": "function"
    },
    {
      "inputs": [],
      "name": "callFee",
      "outputs": [
        {
          "internalType": "uint256",
          "name": "",
          "type": "uint256"
        }
      ],
      "stateMutability": "view",
      "type": "function"
    },
    {
      "inputs": [],
      "name": "deposit",
      "outputs": [],
      "stateMutability": "nonpayable",
      "type": "function"
    },
    {
      "inputs": [],
      "name": "harvest",
      "outputs": [],
      "stateMutability": "nonpayable",
      "type": "function"
    },
    {
      "inputs": [],
      "name": "keeper",
      "outputs": [
        {
          "internalType": "address",
          "name": "",
          "type": "address"
        }
      ],
      "stateMutability": "view",
      "type": "function"
    },
    {
      "inputs": [],
      "name": "lpToken0",
      "outputs": [
        {
          "internalType": "address",
          "name": "",
          "type": "address"
        }
      ],
      "stateMutability": "view",
      "type": "function"
    },
    {
      "inputs": [],
      "name": "lpToken1",
      "outputs": [
        {
          "internalType": "address",
          "name": "",
          "type": "address"
        }
      ],
      "stateMutability": "view",
      "type": "function"
    },
    {
      "inputs": [],
      "name": "native",
      "outputs": [
        {
          "internalType": "address",
          "name": "",
          "type": "address"
        }
      ],
      "stateMutability": "view",
      "type": "function"
    },
    {
      "inputs": [],
      "name": "output",
      "outputs": [
        {
          "internalType": "address",
          "name": "",
          "type": "address"
        }
      ],
      "stateMutability": "view",
      "type": "function"
    },
    {
      "inputs": [
        {
          "internalType": "uint256",
          "name": "",
          "type": "uint256"
        }
      ],
      "name": "outputToLp0Route",
      "outputs": [
        {
          "internalType": "address",
          "name": "",
          "type": "address"
        }
      ],
      "stateMutability": "view",
      "type": "function"
    },
    {
      "inputs": [
        {
          "internalType": "uint256",
          "name": "",
          "type": "uint256"
        }
      ],
      "name": "outputToLp1Route",
      "outputs": [
        {
          "internalType": "address",
          "name": "",
          "type": "address"
        }
      ],
      "stateMutability": "view",
      "type": "function"
    },
    {
      "inputs": [
        {
          "internalType": "uint256",
          "name": "",
          "type": "uint256"
        }
      ],
      "name": "outputToNativeRoute",
      "outputs": [
        {
          "internalType": "address",
          "name": "",
          "type": "address"
        }
      ],
      "stateMutability": "view",
      "type": "function"
    },
    {
      "inputs": [],
      "name": "owner",
      "outputs": [
        {
          "internalType": "address",
          "name": "",
          "type": "address"
        }
      ],
      "stateMutability": "view",
      "type": "function"
    },
    {
      "inputs": [],
      "name": "panic",
      "outputs": [],
      "stateMutability": "nonpayable",
      "type": "function"
    },
    {
      "inputs": [],
      "name": "pause",
      "outputs": [],
      "stateMutability": "nonpayable",
      "type": "function"
    },
    {
      "inputs": [],
      "name": "paused",
      "outputs": [
        {
          "internalType": "bool",
          "name": "",
          "type": "bool"
        }
      ],
      "stateMutability": "view",
      "type": "function"
    },
    {
      "inputs": [],
      "name": "renounceOwnership",
      "outputs": [],
      "stateMutability": "nonpayable",
      "type": "function"
    },
    {
      "inputs": [],
      "name": "retireStrat",
      "outputs": [],
      "stateMutability": "nonpayable",
      "type": "function"
    },
    {
      "inputs": [],
      "name": "rewardPool",
      "outputs": [
        {
          "internalType": "address",
          "name": "",
          "type": "address"
        }
      ],
      "stateMutability": "view",
      "type": "function"
    },
    {
      "inputs": [
        {
          "internalType": "address",
          "name": "_beefyFeeRecipient",
          "type": "address"
        }
      ],
      "name": "setBeefyFeeRecipient",
      "outputs": [],
      "stateMutability": "nonpayable",
      "type": "function"
    },
    {
      "inputs": [
        {
          "internalType": "uint256",
          "name": "_fee",
          "type": "uint256"
        }
      ],
      "name": "setCallFee",
      "outputs": [],
      "stateMutability": "nonpayable",
      "type": "function"
    },
    {
      "inputs": [
        {
          "internalType": "address",
          "name": "_keeper",
          "type": "address"
        }
      ],
      "name": "setKeeper",
      "outputs": [],
      "stateMutability": "nonpayable",
      "type": "function"
    },
    {
      "inputs": [
        {
          "internalType": "address",
          "name": "_strategist",
          "type": "address"
        }
      ],
      "name": "setStrategist",
      "outputs": [],
      "stateMutability": "nonpayable",
      "type": "function"
    },
    {
      "inputs": [
        {
          "internalType": "address",
          "name": "_unirouter",
          "type": "address"
        }
      ],
      "name": "setUnirouter",
      "outputs": [],
      "stateMutability": "nonpayable",
      "type": "function"
    },
    {
      "inputs": [
        {
          "internalType": "address",
          "name": "_vault",
          "type": "address"
        }
      ],
      "name": "setVault",
      "outputs": [],
      "stateMutability": "nonpayable",
      "type": "function"
    },
    {
      "inputs": [
        {
          "internalType": "uint256",
          "name": "_fee",
          "type": "uint256"
        }
      ],
      "name": "setWithdrawalFee",
      "outputs": [],
      "stateMutability": "nonpayable",
      "type": "function"
    },
    {
      "inputs": [],
      "name": "strategist",
      "outputs": [
        {
          "internalType": "address",
          "name": "",
          "type": "address"
        }
      ],
      "stateMutability": "view",
      "type": "function"
    },
    {
      "inputs": [
        {
          "internalType": "address",
          "name": "newOwner",
          "type": "address"
        }
      ],
      "name": "transferOwnership",
      "outputs": [],
      "stateMutability": "nonpayable",
      "type": "function"
    },
    {
      "inputs": [],
      "name": "unirouter",
      "outputs": [
        {
          "internalType": "address",
          "name": "",
          "type": "address"
        }
      ],
      "stateMutability": "view",
      "type": "function"
    },
    {
      "inputs": [],
      "name": "unpause",
      "outputs": [],
      "stateMutability": "nonpayable",
      "type": "function"
    },
    {
      "inputs": [],
      "name": "vault",
      "outputs": [
        {
          "internalType": "address",
          "name": "",
          "type": "address"
        }
      ],
      "stateMutability": "view",
      "type": "function"
    },
    {
      "inputs": [],
      "name": "want",
      "outputs": [
        {
          "internalType": "address",
          "name": "",
          "type": "address"
        }
      ],
      "stateMutability": "view",
      "type": "function"
    },
    {
      "inputs": [
        {
          "internalType": "uint256",
          "name": "_amount",
          "type": "uint256"
        }
      ],
      "name": "withdraw",
      "outputs": [],
      "stateMutability": "nonpayable",
      "type": "function"
    },
    {
      "inputs": [],
      "name": "withdrawalFee",
      "outputs": [
        {
          "internalType": "uint256",
          "name": "",
          "type": "uint256"
        }
      ],
      "stateMutability": "view",
      "type": "function"
    }
  ],
  "transactionHash": "0x158459a7e95c097f510ad3639fd2118d9af6fb4fdfdc416d88ba78af2b502093",
  "args": [
    "0x2648ec89875d944e38f55925Df77D9Cfe0B01Edd",
    "0xB4A7e2FCf1FdC1481cbF24eE76e083d3c17F0859",
    "0x2D4cf116A59e24Dd0aB8821c93AE87658a9483b6",
    "0xa5E0829CaCEd8fFDD4De3c43696c57F7D7A678ff",
    "0x10aee6B5594942433e7Fc2783598c979B030eF3D",
    "0x530115e78F7BC2fE235666651f9113DB9cecE5A2",
    "0xA323f6761c6eF06B6EAB06D6138B15486b0e96da",
    [
      "0x831753DD7087CaC61aB5644b308642cc1c33Dc13",
      "0x0d500B1d8E8eF31E21C99d1Db9A6444d3ADf1270"
    ],
    [],
    [
      "0x831753DD7087CaC61aB5644b308642cc1c33Dc13",
      "0x9aCeB6f749396d1930aBc9e263eFc449E5e82c13"
    ]
  ],
  "solcInputHash": "afe250789b257e099b62c841271a081f",
  "bytecode": "0x6080604052600a600655606f6007556103096008553480156200002157600080fd5b50604051620032af380380620032af83398181016040526101408110156200004857600080fd5b815160208301516040808501516060860151608087015160a088015160c089015160e08a0180519651989a9799959894979396929591949391820192846401000000008211156200009857600080fd5b908301906020820185811115620000ae57600080fd5b8251866020820283011164010000000082111715620000cc57600080fd5b82525081516020918201928201910280838360005b83811015620000fb578181015183820152602001620000e1565b50505050905001604052602001805160405193929190846401000000008211156200012557600080fd5b9083019060208201858111156200013b57600080fd5b82518660208202830111640100000000821117156200015957600080fd5b82525081516020918201928201910280838360005b83811015620001885781810151838201526020016200016e565b5050505090500160405260200180516040519392919084640100000000821115620001b257600080fd5b908301906020820185811115620001c857600080fd5b8251866020820283011164010000000082111715620001e657600080fd5b82525081516020918201928201910280838360005b8381101562000215578181015183820152602001620001fb565b505050509050016040525050508585888a876000620002396200051360201b60201c565b600080546001600160a01b0319166001600160a01b0383169081178255604051929350917f8be0079c531659141344cd1fd0a4f28419497f9722a3daafe3b4186f6b6457e0908290a3506000805460ff60a01b19168155600180546001600160a01b03199081166001600160a01b0398891617909155600280548216968816969096179095556003805486169487169490941790935560048054851692861692909217909155600580548416918516919091179055600b805483168e8516179055600e8054909216928c1692909217905583518491906200031657fe5b6020026020010151600a60006101000a8154816001600160a01b0302191690836001600160a01b03160217905550826001845103815181106200035557fe5b602090810291909101810151600980546001600160a01b0319166001600160a01b0390921691909117905583516200039491600f919086019062000a38565b50600b60009054906101000a90046001600160a01b03166001600160a01b0316630dfe16816040518163ffffffff1660e01b815260040160206040518083038186803b158015620003e457600080fd5b505afa158015620003f9573d6000803e3d6000fd5b505050506040513d60208110156200041057600080fd5b5051600c80546001600160a01b0319166001600160a01b0390921691909117905581516200044690601090602085019062000a38565b50600b60009054906101000a90046001600160a01b03166001600160a01b031663d21220a76040518163ffffffff1660e01b815260040160206040518083038186803b1580156200049657600080fd5b505afa158015620004ab573d6000803e3d6000fd5b505050506040513d6020811015620004c257600080fd5b5051600d80546001600160a01b0319166001600160a01b039092169190911790558051620004f890601190602084019062000a38565b506200050362000517565b5050505050505050505062000ac3565b3390565b600e54600b5462000544916001600160a01b03918216911660001962000625602090811b6200156a17901c565b600354600a5462000571916001600160a01b03918216911660001962000625602090811b6200156a17901c565b600354600c546200059d916001600160a01b039182169116600062000625602090811b6200156a17901c565b600354600c54620005ca916001600160a01b03918216911660001962000625602090811b6200156a17901c565b600354600d54620005f6916001600160a01b039182169116600062000625602090811b6200156a17901c565b600354600d5462000623916001600160a01b03918216911660001962000625602090811b6200156a17901c565b565b801580620006af575060408051636eb1769f60e11b81523060048201526001600160a01b03848116602483015291519185169163dd62ed3e91604480820192602092909190829003018186803b1580156200067f57600080fd5b505afa15801562000694573d6000803e3d6000fd5b505050506040513d6020811015620006ab57600080fd5b5051155b620006ec5760405162461bcd60e51b8152600401808060200182810382526036815260200180620032796036913960400191505060405180910390fd5b604080516001600160a01b038416602482015260448082018490528251808303909101815260649091019091526020810180516001600160e01b0390811663095ea7b360e01b17909152620007449185916200074916565b505050565b6060620007a5826040518060400160405280602081526020017f5361666545524332303a206c6f772d6c6576656c2063616c6c206661696c6564815250856001600160a01b03166200080560201b6200167d179092919060201c565b8051909150156200074457808060200190516020811015620007c657600080fd5b5051620007445760405162461bcd60e51b815260040180806020018281038252602a8152602001806200324f602a913960400191505060405180910390fd5b606062000816848460008562000820565b90505b9392505050565b606082471015620008635760405162461bcd60e51b8152600401808060200182810382526026815260200180620032296026913960400191505060405180910390fd5b6200086e8562000988565b620008c0576040805162461bcd60e51b815260206004820152601d60248201527f416464726573733a2063616c6c20746f206e6f6e2d636f6e7472616374000000604482015290519081900360640190fd5b60006060866001600160a01b031685876040518082805190602001908083835b60208310620009015780518252601f199092019160209182019101620008e0565b6001836020036101000a03801982511681845116808217855250505050505090500191505060006040518083038185875af1925050503d806000811462000965576040519150601f19603f3d011682016040523d82523d6000602084013e6200096a565b606091505b5090925090506200097d8282866200098e565b979650505050505050565b3b151590565b606083156200099f57508162000819565b825115620009b05782518084602001fd5b8160405162461bcd60e51b81526004018080602001828103825283818151815260200191508051906020019080838360005b83811015620009fc578181015183820152602001620009e2565b50505050905090810190601f16801562000a2a5780820380516001836020036101000a031916815260200191505b509250505060405180910390fd5b82805482825590600052602060002090810192821562000a90579160200282015b8281111562000a9057825182546001600160a01b0319166001600160a01b0390911617825560209092019160019091019062000a59565b5062000a9e92915062000aa2565b5090565b5b8082111562000a9e5780546001600160a01b031916815560010162000aa3565b6127568062000ad36000396000f3fe608060405234801561001057600080fd5b50600436106102745760003560e01c80638456cb5911610151578063c1a3d44c116100c3578063dfbdc43711610087578063dfbdc437146104ec578063f20eaeb8146104f4578063f2fde38b146104fc578063fb61778714610522578063fbfa77cf1461052a578063fd63a8871461053257610274565b8063c1a3d44c14610488578063c7b9d53014610490578063d0e30db0146104b6578063d3102589146104be578063d92f3d73146104c657610274565b806390321e1a1161011557806390321e1a14610410578063a68833e514610418578063ac1e50251461043e578063aced16611461045b578063bc063e1a14610463578063be12a9781461046b57610274565b80638456cb59146103e8578063877562b6146103f05780638bc7e8c4146103f85780638da5cb5b146104005780638e1454591461040857610274565b80634700d305116101ea57806366666aa9116101ae57806366666aa91461037c5780636817031b14610384578063715018a6146103aa578063722713f7146103b2578063748747e6146103ba5780637d38ca65146103e057610274565b80634700d3051461034057806354518b1a14610348578063573fef0a146103505780635c975abb146103585780635ee167c01461037457610274565b8063264658261161023c57806326465826146102cf5780632ad5a53f146102ee5780632e1a7d4d146102f657806336c6cf21146103135780633f4ba83a146103305780634641257d1461033857610274565b8063115880861461027957806311b0b42d146102935780631f1fcd51146102b75780631fe4a686146102bf578063257ae0de146102c7575b600080fd5b61028161054f565b60408051918252519081900360200190f35b61029b6105cb565b604080516001600160a01b039092168252519081900360200190f35b61029b6105da565b61029b6105e9565b61029b6105f8565b6102ec600480360360208110156102e557600080fd5b5035610607565b005b6102816106c1565b6102ec6004803603602081101561030c57600080fd5b50356106c6565b61029b6004803603602081101561032957600080fd5b5035610927565b6102ec61094e565b6102ec6109d5565b6102ec610b0c565b610281610bea565b6102ec6109d3565b610360610bf0565b604080519115158252519081900360200190f35b61029b610c00565b61029b610c0f565b6102ec6004803603602081101561039a57600080fd5b50356001600160a01b0316610c1e565b6102ec610ca2565b610281610d4e565b6102ec600480360360208110156103d057600080fd5b50356001600160a01b0316610d6e565b610281610dfd565b6102ec610e02565b61029b610e7f565b610281610e8e565b61029b610e94565b61029b610ea3565b610281610eb2565b6102ec6004803603602081101561042e57600080fd5b50356001600160a01b0316610eb8565b6102ec6004803603602081101561045457600080fd5b5035610f3c565b61029b610fed565b610281610ffc565b61029b6004803603602081101561048157600080fd5b5035611002565b61028161100f565b6102ec600480360360208110156104a657600080fd5b50356001600160a01b031661105a565b6102ec6110c9565b6102816111fe565b6102ec600480360360208110156104dc57600080fd5b50356001600160a01b0316611204565b610281611288565b61029b61128d565b6102ec6004803603602081101561051257600080fd5b50356001600160a01b031661129c565b6102ec61139e565b61029b61154e565b61029b6004803603602081101561054857600080fd5b503561155d565b600e54604080516370a0823160e01b815230600482015290516000926001600160a01b0316916370a08231916024808301926020929190829003018186803b15801561059a57600080fd5b505afa1580156105ae573d6000803e3d6000fd5b505050506040513d60208110156105c457600080fd5b5051905090565b6009546001600160a01b031681565b600b546001600160a01b031681565b6002546001600160a01b031681565b6003546001600160a01b031681565b61060f610e94565b6001600160a01b0316336001600160a01b0316148061063857506001546001600160a01b031633145b610674576040805162461bcd60e51b815260206004820152600860248201526710b6b0b730b3b2b960c11b604482015290519081900360640190fd5b606f8111156106b3576040805162461bcd60e51b815260206004808301919091526024820152630216361760e41b604482015290519081900360640190fd5b600781905561037803600855565b606f81565b6004546001600160a01b0316331461070e576040805162461bcd60e51b8152602060048201526006602482015265085d985d5b1d60d21b604482015290519081900360640190fd5b600b54604080516370a0823160e01b815230600482015290516000926001600160a01b0316916370a08231916024808301926020929190829003018186803b15801561075957600080fd5b505afa15801561076d573d6000803e3d6000fd5b505050506040513d602081101561078357600080fd5b505190508181101561087257600e546001600160a01b0316632e1a7d4d6107aa8484611696565b6040518263ffffffff1660e01b815260040180828152602001915050600060405180830381600087803b1580156107e057600080fd5b505af11580156107f4573d6000803e3d6000fd5b5050600b54604080516370a0823160e01b815230600482015290516001600160a01b0390921693506370a082319250602480820192602092909190829003018186803b15801561084357600080fd5b505afa158015610857573d6000803e3d6000fd5b505050506040513d602081101561086d57600080fd5b505190505b8181111561087d5750805b610885610e94565b6001600160a01b0316326001600160a01b031614806108a757506108a7610bf0565b156108ce57600454600b546108c9916001600160a01b039182169116836116f8565b610923565b60006108f16127106108eb6006548561174a90919063ffffffff16565b906117a3565b600454909150610921906001600160a01b031661090e8484611696565b600b546001600160a01b031691906116f8565b505b5050565b6010818154811061093457fe5b6000918252602090912001546001600160a01b0316905081565b610956610e94565b6001600160a01b0316336001600160a01b0316148061097f57506001546001600160a01b031633145b6109bb576040805162461bcd60e51b815260206004820152600860248201526710b6b0b730b3b2b960c11b604482015290519081900360640190fd5b6109c361180a565b6109cb6118ad565b6109d36110c9565b565b6109dd610bf0565b15610a22576040805162461bcd60e51b815260206004820152601060248201526f14185d5cd8589b194e881c185d5cd95960821b604482015290519081900360640190fd5b333214610a5f576040805162461bcd60e51b8152602060048083019190915260248201526321454f4160e01b604482015290519081900360640190fd5b600e60009054906101000a90046001600160a01b03166001600160a01b0316633d18b9126040518163ffffffff1660e01b8152600401600060405180830381600087803b158015610aaf57600080fd5b505af1158015610ac3573d6000803e3d6000fd5b50505050610acf611965565b610ad7611cad565b610adf6110c9565b60405133907f577a37fdb49a88d66684922c6f913df5239b4f214b2b97c53ef8e3bbb2034cb590600090a2565b610b14610e94565b6001600160a01b0316336001600160a01b03161480610b3d57506001546001600160a01b031633145b610b79576040805162461bcd60e51b815260206004820152600860248201526710b6b0b730b3b2b960c11b604482015290519081900360640190fd5b610b81610e02565b600e546001600160a01b0316632e1a7d4d610b9a61054f565b6040518263ffffffff1660e01b815260040180828152602001915050600060405180830381600087803b158015610bd057600080fd5b505af1158015610be4573d6000803e3d6000fd5b50505050565b61271081565b600054600160a01b900460ff1690565b600c546001600160a01b031681565b600e546001600160a01b031681565b610c2661221d565b6001600160a01b0316610c37610e94565b6001600160a01b031614610c80576040805162461bcd60e51b815260206004820181905260248201526000805160206126a1833981519152604482015290519081900360640190fd5b600480546001600160a01b0319166001600160a01b0392909216919091179055565b610caa61221d565b6001600160a01b0316610cbb610e94565b6001600160a01b031614610d04576040805162461bcd60e51b815260206004820181905260248201526000805160206126a1833981519152604482015290519081900360640190fd5b600080546040516001600160a01b03909116907f8be0079c531659141344cd1fd0a4f28419497f9722a3daafe3b4186f6b6457e0908390a3600080546001600160a01b0319169055565b6000610d69610d5b61054f565b610d6361100f565b90612221565b905090565b610d76610e94565b6001600160a01b0316336001600160a01b03161480610d9f57506001546001600160a01b031633145b610ddb576040805162461bcd60e51b815260206004820152600860248201526710b6b0b730b3b2b960c11b604482015290519081900360640190fd5b600180546001600160a01b0319166001600160a01b0392909216919091179055565b607081565b610e0a610e94565b6001600160a01b0316336001600160a01b03161480610e3357506001546001600160a01b031633145b610e6f576040805162461bcd60e51b815260206004820152600860248201526710b6b0b730b3b2b960c11b604482015290519081900360640190fd5b610e7761227b565b6109d3612304565b600d546001600160a01b031681565b60065481565b6000546001600160a01b031690565b6005546001600160a01b031681565b60075481565b610ec061221d565b6001600160a01b0316610ed1610e94565b6001600160a01b031614610f1a576040805162461bcd60e51b815260206004820181905260248201526000805160206126a1833981519152604482015290519081900360640190fd5b600580546001600160a01b0319166001600160a01b0392909216919091179055565b610f44610e94565b6001600160a01b0316336001600160a01b03161480610f6d57506001546001600160a01b031633145b610fa9576040805162461bcd60e51b815260206004820152600860248201526710b6b0b730b3b2b960c11b604482015290519081900360640190fd5b6032811115610fe8576040805162461bcd60e51b815260206004808301919091526024820152630216361760e41b604482015290519081900360640190fd5b600655565b6001546001600160a01b031681565b6103e881565b600f818154811061093457fe5b600b54604080516370a0823160e01b815230600482015290516000926001600160a01b0316916370a08231916024808301926020929190829003018186803b15801561059a57600080fd5b6002546001600160a01b031633146110a7576040805162461bcd60e51b815260206004820152600b60248201526a085cdd1c985d1959da5cdd60aa1b604482015290519081900360640190fd5b600280546001600160a01b0319166001600160a01b0392909216919091179055565b6110d1610bf0565b15611116576040805162461bcd60e51b815260206004820152601060248201526f14185d5cd8589b194e881c185d5cd95960821b604482015290519081900360640190fd5b600b54604080516370a0823160e01b815230600482015290516000926001600160a01b0316916370a08231916024808301926020929190829003018186803b15801561116157600080fd5b505afa158015611175573d6000803e3d6000fd5b505050506040513d602081101561118b57600080fd5b5051905080156111fb57600e546040805163534a7e1d60e11b81526004810184905290516001600160a01b039092169163a694fc3a9160248082019260009290919082900301818387803b1580156111e257600080fd5b505af11580156111f6573d6000803e3d6000fd5b505050505b50565b60085481565b61120c61221d565b6001600160a01b031661121d610e94565b6001600160a01b031614611266576040805162461bcd60e51b815260206004820181905260248201526000805160206126a1833981519152604482015290519081900360640190fd5b600380546001600160a01b0319166001600160a01b0392909216919091179055565b603281565b600a546001600160a01b031681565b6112a461221d565b6001600160a01b03166112b5610e94565b6001600160a01b0316146112fe576040805162461bcd60e51b815260206004820181905260248201526000805160206126a1833981519152604482015290519081900360640190fd5b6001600160a01b0381166113435760405162461bcd60e51b81526004018080602001828103825260268152602001806126346026913960400191505060405180910390fd5b600080546040516001600160a01b03808516939216917f8be0079c531659141344cd1fd0a4f28419497f9722a3daafe3b4186f6b6457e091a3600080546001600160a01b0319166001600160a01b0392909216919091179055565b6004546001600160a01b031633146113e6576040805162461bcd60e51b8152602060048201526006602482015265085d985d5b1d60d21b604482015290519081900360640190fd5b600e546001600160a01b0316632e1a7d4d6113ff61054f565b6040518263ffffffff1660e01b815260040180828152602001915050600060405180830381600087803b15801561143557600080fd5b505af1158015611449573d6000803e3d6000fd5b5050600b54604080516370a0823160e01b81523060048201529051600094506001600160a01b0390921692506370a08231916024808301926020929190829003018186803b15801561149a57600080fd5b505afa1580156114ae573d6000803e3d6000fd5b505050506040513d60208110156114c457600080fd5b5051600b54600480546040805163a9059cbb60e01b81526001600160a01b039283169381019390935260248301859052519394509091169163a9059cbb916044808201926020929091908290030181600087803b15801561152457600080fd5b505af1158015611538573d6000803e3d6000fd5b505050506040513d602081101561092157600080fd5b6004546001600160a01b031681565b6011818154811061093457fe5b8015806115f0575060408051636eb1769f60e11b81523060048201526001600160a01b03848116602483015291519185169163dd62ed3e91604480820192602092909190829003018186803b1580156115c257600080fd5b505afa1580156115d6573d6000803e3d6000fd5b505050506040513d60208110156115ec57600080fd5b5051155b61162b5760405162461bcd60e51b81526004018080602001828103825260368152602001806126eb6036913960400191505060405180910390fd5b604080516001600160a01b038416602482015260448082018490528251808303909101815260649091019091526020810180516001600160e01b031663095ea7b360e01b17905261092190849061237c565b606061168c848460008561242d565b90505b9392505050565b6000828211156116ed576040805162461bcd60e51b815260206004820152601e60248201527f536166654d6174683a207375627472616374696f6e206f766572666c6f770000604482015290519081900360640190fd5b508082035b92915050565b604080516001600160a01b038416602482015260448082018490528251808303909101815260649091019091526020810180516001600160e01b031663a9059cbb60e01b17905261092190849061237c565b600082611759575060006116f2565b8282028284828161176657fe5b041461168f5760405162461bcd60e51b81526004018080602001828103825260218152602001806126806021913960400191505060405180910390fd5b60008082116117f9576040805162461bcd60e51b815260206004820152601a60248201527f536166654d6174683a206469766973696f6e206279207a65726f000000000000604482015290519081900360640190fd5b81838161180257fe5b049392505050565b611812610bf0565b61185a576040805162461bcd60e51b815260206004820152601460248201527314185d5cd8589b194e881b9bdd081c185d5cd95960621b604482015290519081900360640190fd5b6000805460ff60a01b191690557f5db9ee0a495bf2e6ff9c91a7834c1ba4fdd244a5e8aa4e537bd38aeae4b073aa61189061221d565b604080516001600160a01b039092168252519081900360200190a1565b600e54600b546118cc916001600160a01b03918216911660001961156a565b600354600a546118eb916001600160a01b03918216911660001961156a565b600354600c54611909916001600160a01b039182169116600061156a565b600354600c54611928916001600160a01b03918216911660001961156a565b600354600d54611946916001600160a01b039182169116600061156a565b600354600d546109d3916001600160a01b03918216911660001961156a565b600a54604080516370a0823160e01b815230600482015290516000926119f4926103e8926108eb92602d926001600160a01b03909116916370a0823191602480820192602092909190829003018186803b1580156119c257600080fd5b505afa1580156119d6573d6000803e3d6000fd5b505050506040513d60208110156119ec57600080fd5b50519061174a565b9050600360009054906101000a90046001600160a01b03166001600160a01b03166338ed1739826000600f30426040518663ffffffff1660e01b81526004018086815260200185815260200180602001846001600160a01b031681526020018381526020018281038252858181548152602001915080548015611aa057602002820191906000526020600020905b81546001600160a01b03168152600190910190602001808311611a82575b50509650505050505050600060405180830381600087803b158015611ac457600080fd5b505af1158015611ad8573d6000803e3d6000fd5b505050506040513d6000823e601f3d908101601f191682016040526020811015611b0157600080fd5b8101908080516040519392919084640100000000821115611b2157600080fd5b908301906020820185811115611b3657600080fd5b8251866020820283011164010000000082111715611b5357600080fd5b82525081516020918201928201910280838360005b83811015611b80578181015183820152602001611b68565b505050509190910160408181526009546370a0823160e01b83523060048401529051600097506001600160a01b0390911695506370a08231945060248083019450602093509091829003018186803b158015611bdb57600080fd5b505afa158015611bef573d6000803e3d6000fd5b505050506040513d6020811015611c0557600080fd5b5051600754909150600090611c23906103e8906108eb90859061174a565b600954909150611c3d906001600160a01b031633836116f8565b6000611c5a6103e86108eb6008548661174a90919063ffffffff16565b600554600954919250611c7a916001600160a01b039081169116836116f8565b6000611c8d6103e86108eb86607061174a565b6002546009549192506111f6916001600160a01b039081169116836116f8565b600a54604080516370a0823160e01b81523060048201529051600092611d34926002926001600160a01b03909216916370a0823191602480820192602092909190829003018186803b158015611d0257600080fd5b505afa158015611d16573d6000803e3d6000fd5b505050506040513d6020811015611d2c57600080fd5b5051906117a3565b600a54600c549192506001600160a01b03918216911614611ed8576003546040516338ed173960e01b8152600481018381526000602483018190523060648401819052426084850181905260a0604486019081526010805460a488018190526001600160a01b03909816976338ed1739978a97929594939160c49091019086908015611de957602002820191906000526020600020905b81546001600160a01b03168152600190910190602001808311611dcb575b50509650505050505050600060405180830381600087803b158015611e0d57600080fd5b505af1158015611e21573d6000803e3d6000fd5b505050506040513d6000823e601f3d908101601f191682016040526020811015611e4a57600080fd5b8101908080516040519392919084640100000000821115611e6a57600080fd5b908301906020820185811115611e7f57600080fd5b8251866020820283011164010000000082111715611e9c57600080fd5b82525081516020918201928201910280838360005b83811015611ec9578181015183820152602001611eb1565b50505050905001604052505050505b600a54600d546001600160a01b03908116911614612079576003546040516338ed173960e01b8152600481018381526000602483018190523060648401819052426084850181905260a0604486019081526011805460a488018190526001600160a01b03909816976338ed1739978a97929594939160c49091019086908015611f8a57602002820191906000526020600020905b81546001600160a01b03168152600190910190602001808311611f6c575b50509650505050505050600060405180830381600087803b158015611fae57600080fd5b505af1158015611fc2573d6000803e3d6000fd5b505050506040513d6000823e601f3d908101601f191682016040526020811015611feb57600080fd5b810190808051604051939291908464010000000082111561200b57600080fd5b90830190602082018581111561202057600080fd5b825186602082028301116401000000008211171561203d57600080fd5b82525081516020918201928201910280838360005b8381101561206a578181015183820152602001612052565b50505050905001604052505050505b600c54604080516370a0823160e01b815230600482015290516000926001600160a01b0316916370a08231916024808301926020929190829003018186803b1580156120c457600080fd5b505afa1580156120d8573d6000803e3d6000fd5b505050506040513d60208110156120ee57600080fd5b5051600d54604080516370a0823160e01b815230600482015290519293506000926001600160a01b03909216916370a0823191602480820192602092909190829003018186803b15801561214157600080fd5b505afa158015612155573d6000803e3d6000fd5b505050506040513d602081101561216b57600080fd5b5051600354600c54600d546040805162e8e33760e81b81526001600160a01b0393841660048201529183166024830152604482018790526064820185905260016084830181905260a48301523060c48301524260e48301525193945091169163e8e3370091610104808201926060929091908290030181600087803b1580156121f357600080fd5b505af1158015612207573d6000803e3d6000fd5b505050506040513d60608110156111f657600080fd5b3390565b60008282018381101561168f576040805162461bcd60e51b815260206004820152601b60248201527f536166654d6174683a206164646974696f6e206f766572666c6f770000000000604482015290519081900360640190fd5b612283610bf0565b156122c8576040805162461bcd60e51b815260206004820152601060248201526f14185d5cd8589b194e881c185d5cd95960821b604482015290519081900360640190fd5b6000805460ff60a01b1916600160a01b1790557f62e78cea01bee320cd4e420270b5ea74000d11b0c9f74754ebdbfc544b05a25861189061221d565b600e54600b54612322916001600160a01b039182169116600061156a565b600354600a54612340916001600160a01b039182169116600061156a565b600354600c5461235e916001600160a01b039182169116600061156a565b600354600d546109d3916001600160a01b039182169116600061156a565b60606123d1826040518060400160405280602081526020017f5361666545524332303a206c6f772d6c6576656c2063616c6c206661696c6564815250856001600160a01b031661167d9092919063ffffffff16565b805190915015610921578080602001905160208110156123f057600080fd5b50516109215760405162461bcd60e51b815260040180806020018281038252602a8152602001806126c1602a913960400191505060405180910390fd5b60608247101561246e5760405162461bcd60e51b815260040180806020018281038252602681526020018061265a6026913960400191505060405180910390fd5b61247785612589565b6124c8576040805162461bcd60e51b815260206004820152601d60248201527f416464726573733a2063616c6c20746f206e6f6e2d636f6e7472616374000000604482015290519081900360640190fd5b60006060866001600160a01b031685876040518082805190602001908083835b602083106125075780518252601f1990920191602091820191016124e8565b6001836020036101000a03801982511681845116808217855250505050505090500191505060006040518083038185875af1925050503d8060008114612569576040519150601f19603f3d011682016040523d82523d6000602084013e61256e565b606091505b509150915061257e82828661258f565b979650505050505050565b3b151590565b6060831561259e57508161168f565b8251156125ae5782518084602001fd5b8160405162461bcd60e51b81526004018080602001828103825283818151815260200191508051906020019080838360005b838110156125f85781810151838201526020016125e0565b50505050905090810190601f1680156126255780820380516001836020036101000a031916815260200191505b509250505060405180910390fdfe4f776e61626c653a206e6577206f776e657220697320746865207a65726f2061646472657373416464726573733a20696e73756666696369656e742062616c616e636520666f722063616c6c536166654d6174683a206d756c7469706c69636174696f6e206f766572666c6f774f776e61626c653a2063616c6c6572206973206e6f7420746865206f776e65725361666545524332303a204552433230206f7065726174696f6e20646964206e6f7420737563636565645361666545524332303a20617070726f76652066726f6d206e6f6e2d7a65726f20746f206e6f6e2d7a65726f20616c6c6f77616e6365a2646970667358221220f4e884989e0b5b83b953ec225659e35976131e010c27bde790571d522d5cd45064736f6c634300060c0033416464726573733a20696e73756666696369656e742062616c616e636520666f722063616c6c5361666545524332303a204552433230206f7065726174696f6e20646964206e6f7420737563636565645361666545524332303a20617070726f76652066726f6d206e6f6e2d7a65726f20746f206e6f6e2d7a65726f20616c6c6f77616e6365",
  "devdoc": {
    "events": {
      "StratHarvest(address)": {
        "details": "Event that is fired each time someone harvests the strat."
      }
    },
    "kind": "dev",
    "methods": {
      "beforeDeposit()": {
        "details": "Function to synchronize balances before new user deposit. Can be overridden in the strategy."
      },
      "owner()": {
        "details": "Returns the address of the current owner."
      },
      "paused()": {
        "details": "Returns true if the contract is paused, and false otherwise."
      },
      "renounceOwnership()": {
        "details": "Leaves the contract without owner. It will not be possible to call `onlyOwner` functions anymore. Can only be called by the current owner. NOTE: Renouncing ownership will leave the contract without an owner, thereby removing any functionality that is only available to the owner."
      },
      "setBeefyFeeRecipient(address)": {
        "details": "Updates beefy fee recipient.",
        "params": {
          "_beefyFeeRecipient": "new beefy fee recipient address."
        }
      },
      "setKeeper(address)": {
        "details": "Updates address of the strat keeper.",
        "params": {
          "_keeper": "new keeper address."
        }
      },
      "setStrategist(address)": {
        "details": "Updates address where strategist fee earnings will go.",
        "params": {
          "_strategist": "new strategist address."
        }
      },
      "setUnirouter(address)": {
        "details": "Updates router that will be used for swaps.",
        "params": {
          "_unirouter": "new unirouter address."
        }
      },
      "setVault(address)": {
        "details": "Updates parent vault.",
        "params": {
          "_vault": "new vault address."
        }
      },
      "transferOwnership(address)": {
        "details": "Transfers ownership of the contract to a new account (`newOwner`). Can only be called by the current owner."
      }
    },
    "version": 1
  },
  "userdoc": {
    "kind": "user",
    "methods": {},
    "version": 1
  },
  "storageLayout": {
    "storage": [
      {
        "astId": 290,
        "contract": "contracts/BIFI/strategies/Common/StrategyCommonRewardPoolLP.sol:StrategyCommonRewardPoolLP",
        "label": "_owner",
        "offset": 0,
        "slot": "0",
        "type": "t_address"
      },
      {
        "astId": 3143,
        "contract": "contracts/BIFI/strategies/Common/StrategyCommonRewardPoolLP.sol:StrategyCommonRewardPoolLP",
        "label": "_paused",
        "offset": 20,
        "slot": "0",
        "type": "t_bool"
      },
      {
        "astId": 37466,
        "contract": "contracts/BIFI/strategies/Common/StrategyCommonRewardPoolLP.sol:StrategyCommonRewardPoolLP",
        "label": "keeper",
        "offset": 0,
        "slot": "1",
        "type": "t_address"
      },
      {
        "astId": 37468,
        "contract": "contracts/BIFI/strategies/Common/StrategyCommonRewardPoolLP.sol:StrategyCommonRewardPoolLP",
        "label": "strategist",
        "offset": 0,
        "slot": "2",
        "type": "t_address"
      },
      {
        "astId": 37470,
        "contract": "contracts/BIFI/strategies/Common/StrategyCommonRewardPoolLP.sol:StrategyCommonRewardPoolLP",
        "label": "unirouter",
        "offset": 0,
        "slot": "3",
        "type": "t_address"
      },
      {
        "astId": 37472,
        "contract": "contracts/BIFI/strategies/Common/StrategyCommonRewardPoolLP.sol:StrategyCommonRewardPoolLP",
        "label": "vault",
        "offset": 0,
        "slot": "4",
        "type": "t_address"
      },
      {
        "astId": 37474,
        "contract": "contracts/BIFI/strategies/Common/StrategyCommonRewardPoolLP.sol:StrategyCommonRewardPoolLP",
        "label": "beefyFeeRecipient",
        "offset": 0,
        "slot": "5",
        "type": "t_address"
      },
      {
        "astId": 37398,
        "contract": "contracts/BIFI/strategies/Common/StrategyCommonRewardPoolLP.sol:StrategyCommonRewardPoolLP",
        "label": "withdrawalFee",
        "offset": 0,
        "slot": "6",
        "type": "t_uint256"
      },
      {
        "astId": 37401,
        "contract": "contracts/BIFI/strategies/Common/StrategyCommonRewardPoolLP.sol:StrategyCommonRewardPoolLP",
        "label": "callFee",
        "offset": 0,
        "slot": "7",
        "type": "t_uint256"
      },
      {
        "astId": 37408,
        "contract": "contracts/BIFI/strategies/Common/StrategyCommonRewardPoolLP.sol:StrategyCommonRewardPoolLP",
        "label": "beefyFee",
        "offset": 0,
        "slot": "8",
        "type": "t_uint256"
      },
      {
        "astId": 38383,
        "contract": "contracts/BIFI/strategies/Common/StrategyCommonRewardPoolLP.sol:StrategyCommonRewardPoolLP",
        "label": "native",
        "offset": 0,
        "slot": "9",
        "type": "t_address"
      },
      {
        "astId": 38385,
        "contract": "contracts/BIFI/strategies/Common/StrategyCommonRewardPoolLP.sol:StrategyCommonRewardPoolLP",
        "label": "output",
        "offset": 0,
        "slot": "10",
        "type": "t_address"
      },
      {
        "astId": 38387,
        "contract": "contracts/BIFI/strategies/Common/StrategyCommonRewardPoolLP.sol:StrategyCommonRewardPoolLP",
        "label": "want",
        "offset": 0,
        "slot": "11",
        "type": "t_address"
      },
      {
        "astId": 38389,
        "contract": "contracts/BIFI/strategies/Common/StrategyCommonRewardPoolLP.sol:StrategyCommonRewardPoolLP",
        "label": "lpToken0",
        "offset": 0,
        "slot": "12",
        "type": "t_address"
      },
      {
        "astId": 38391,
        "contract": "contracts/BIFI/strategies/Common/StrategyCommonRewardPoolLP.sol:StrategyCommonRewardPoolLP",
        "label": "lpToken1",
        "offset": 0,
        "slot": "13",
        "type": "t_address"
      },
      {
        "astId": 38393,
        "contract": "contracts/BIFI/strategies/Common/StrategyCommonRewardPoolLP.sol:StrategyCommonRewardPoolLP",
        "label": "rewardPool",
        "offset": 0,
        "slot": "14",
        "type": "t_address"
      },
      {
        "astId": 38396,
        "contract": "contracts/BIFI/strategies/Common/StrategyCommonRewardPoolLP.sol:StrategyCommonRewardPoolLP",
        "label": "outputToNativeRoute",
        "offset": 0,
        "slot": "15",
        "type": "t_array(t_address)dyn_storage"
      },
      {
        "astId": 38399,
        "contract": "contracts/BIFI/strategies/Common/StrategyCommonRewardPoolLP.sol:StrategyCommonRewardPoolLP",
        "label": "outputToLp0Route",
        "offset": 0,
        "slot": "16",
        "type": "t_array(t_address)dyn_storage"
      },
      {
        "astId": 38402,
        "contract": "contracts/BIFI/strategies/Common/StrategyCommonRewardPoolLP.sol:StrategyCommonRewardPoolLP",
        "label": "outputToLp1Route",
        "offset": 0,
        "slot": "17",
        "type": "t_array(t_address)dyn_storage"
      }
    ],
    "types": {
      "t_address": {
        "encoding": "inplace",
        "label": "address",
        "numberOfBytes": "20"
      },
      "t_array(t_address)dyn_storage": {
        "base": "t_address",
        "encoding": "dynamic_array",
        "label": "address[]",
        "numberOfBytes": "32"
      },
      "t_bool": {
        "encoding": "inplace",
        "label": "bool",
        "numberOfBytes": "1"
      },
      "t_uint256": {
        "encoding": "inplace",
        "label": "uint256",
        "numberOfBytes": "32"
      }
    }
  }
}