{
  "address": "0x9ED77C14DE83a24c9E1Ca97472a22a86d90EEA0c",
  "abi": [
    {
      "inputs": [
        {
          "internalType": "address",
          "name": "_want",
          "type": "address"
        },
        {
          "internalType": "address",
          "name": "_rewardPool",
          "type": "address"
        },
        {
          "internalType": "address",
          "name": "_vault",
          "type": "address"
        },
        {
          "internalType": "address",
          "name": "_unirouter",
          "type": "address"
        },
        {
          "internalType": "address",
          "name": "_keeper",
          "type": "address"
        },
        {
          "internalType": "address",
          "name": "_strategist",
          "type": "address"
        },
        {
          "internalType": "address",
          "name": "_beefyFeeRecipient",
          "type": "address"
        },
        {
          "internalType": "address[]",
          "name": "_outputToNativeRoute",
          "type": "address[]"
        },
        {
          "internalType": "address[]",
          "name": "_outputToLp0Route",
          "type": "address[]"
        },
        {
          "internalType": "address[]",
          "name": "_outputToLp1Route",
          "type": "address[]"
        }
      ],
      "stateMutability": "nonpayable",
      "type": "constructor"
    },
    {
      "anonymous": false,
      "inputs": [
        {
          "indexed": true,
          "internalType": "address",
          "name": "previousOwner",
          "type": "address"
        },
        {
          "indexed": true,
          "internalType": "address",
          "name": "newOwner",
          "type": "address"
        }
      ],
      "name": "OwnershipTransferred",
      "type": "event"
    },
    {
      "anonymous": false,
      "inputs": [
        {
          "indexed": false,
          "internalType": "address",
          "name": "account",
          "type": "address"
        }
      ],
      "name": "Paused",
      "type": "event"
    },
    {
      "anonymous": false,
      "inputs": [
        {
          "indexed": true,
          "internalType": "address",
          "name": "harvester",
          "type": "address"
        }
      ],
      "name": "StratHarvest",
      "type": "event"
    },
    {
      "anonymous": false,
      "inputs": [
        {
          "indexed": false,
          "internalType": "address",
          "name": "account",
          "type": "address"
        }
      ],
      "name": "Unpaused",
      "type": "event"
    },
    {
      "inputs": [],
      "name": "MAX_CALL_FEE",
      "outputs": [
        {
          "internalType": "uint256",
          "name": "",
          "type": "uint256"
        }
      ],
      "stateMutability": "view",
      "type": "function"
    },
    {
      "inputs": [],
      "name": "MAX_FEE",
      "outputs": [
        {
          "internalType": "uint256",
          "name": "",
          "type": "uint256"
        }
      ],
      "stateMutability": "view",
      "type": "function"
    },
    {
      "inputs": [],
      "name": "STRATEGIST_FEE",
      "outputs": [
        {
          "internalType": "uint256",
          "name": "",
          "type": "uint256"
        }
      ],
      "stateMutability": "view",
      "type": "function"
    },
    {
      "inputs": [],
      "name": "WITHDRAWAL_FEE_CAP",
      "outputs": [
        {
          "internalType": "uint256",
          "name": "",
          "type": "uint256"
        }
      ],
      "stateMutability": "view",
      "type": "function"
    },
    {
      "inputs": [],
      "name": "WITHDRAWAL_MAX",
      "outputs": [
        {
          "internalType": "uint256",
          "name": "",
          "type": "uint256"
        }
      ],
      "stateMutability": "view",
      "type": "function"
    },
    {
      "inputs": [],
      "name": "balanceOf",
      "outputs": [
        {
          "internalType": "uint256",
          "name": "",
          "type": "uint256"
        }
      ],
      "stateMutability": "view",
      "type": "function"
    },
    {
      "inputs": [],
      "name": "balanceOfPool",
      "outputs": [
        {
          "internalType": "uint256",
          "name": "",
          "type": "uint256"
        }
      ],
      "stateMutability": "view",
      "type": "function"
    },
    {
      "inputs": [],
      "name": "balanceOfWant",
      "outputs": [
        {
          "internalType": "uint256",
          "name": "",
          "type": "uint256"
        }
      ],
      "stateMutability": "view",
      "type": "function"
    },
    {
      "inputs": [],
      "name": "beefyFee",
      "outputs": [
        {
          "internalType": "uint256",
          "name": "",
          "type": "uint256"
        }
      ],
      "stateMutability": "view",
      "type": "function"
    },
    {
      "inputs": [],
      "name": "beefyFeeRecipient",
      "outputs": [
        {
          "internalType": "address",
          "name": "",
          "type": "address"
        }
      ],
      "stateMutability": "view",
      "type": "function"
    },
    {
      "inputs": [],
      "name": "beforeDeposit",
      "outputs": [],
      "stateMutability": "nonpayable",
      "type": "function"
    },
    {
      "inputs": [],
      "name": "callFee",
      "outputs": [
        {
          "internalType": "uint256",
          "name": "",
          "type": "uint256"
        }
      ],
      "stateMutability": "view",
      "type": "function"
    },
    {
      "inputs": [],
      "name": "deposit",
      "outputs": [],
      "stateMutability": "nonpayable",
      "type": "function"
    },
    {
      "inputs": [],
      "name": "harvest",
      "outputs": [],
      "stateMutability": "nonpayable",
      "type": "function"
    },
    {
      "inputs": [],
      "name": "keeper",
      "outputs": [
        {
          "internalType": "address",
          "name": "",
          "type": "address"
        }
      ],
      "stateMutability": "view",
      "type": "function"
    },
    {
      "inputs": [],
      "name": "lpToken0",
      "outputs": [
        {
          "internalType": "address",
          "name": "",
          "type": "address"
        }
      ],
      "stateMutability": "view",
      "type": "function"
    },
    {
      "inputs": [],
      "name": "lpToken1",
      "outputs": [
        {
          "internalType": "address",
          "name": "",
          "type": "address"
        }
      ],
      "stateMutability": "view",
      "type": "function"
    },
    {
      "inputs": [],
      "name": "native",
      "outputs": [
        {
          "internalType": "address",
          "name": "",
          "type": "address"
        }
      ],
      "stateMutability": "view",
      "type": "function"
    },
    {
      "inputs": [],
      "name": "output",
      "outputs": [
        {
          "internalType": "address",
          "name": "",
          "type": "address"
        }
      ],
      "stateMutability": "view",
      "type": "function"
    },
    {
      "inputs": [
        {
          "internalType": "uint256",
          "name": "",
          "type": "uint256"
        }
      ],
      "name": "outputToLp0Route",
      "outputs": [
        {
          "internalType": "address",
          "name": "",
          "type": "address"
        }
      ],
      "stateMutability": "view",
      "type": "function"
    },
    {
      "inputs": [
        {
          "internalType": "uint256",
          "name": "",
          "type": "uint256"
        }
      ],
      "name": "outputToLp1Route",
      "outputs": [
        {
          "internalType": "address",
          "name": "",
          "type": "address"
        }
      ],
      "stateMutability": "view",
      "type": "function"
    },
    {
      "inputs": [
        {
          "internalType": "uint256",
          "name": "",
          "type": "uint256"
        }
      ],
      "name": "outputToNativeRoute",
      "outputs": [
        {
          "internalType": "address",
          "name": "",
          "type": "address"
        }
      ],
      "stateMutability": "view",
      "type": "function"
    },
    {
      "inputs": [],
      "name": "owner",
      "outputs": [
        {
          "internalType": "address",
          "name": "",
          "type": "address"
        }
      ],
      "stateMutability": "view",
      "type": "function"
    },
    {
      "inputs": [],
      "name": "panic",
      "outputs": [],
      "stateMutability": "nonpayable",
      "type": "function"
    },
    {
      "inputs": [],
      "name": "pause",
      "outputs": [],
      "stateMutability": "nonpayable",
      "type": "function"
    },
    {
      "inputs": [],
      "name": "paused",
      "outputs": [
        {
          "internalType": "bool",
          "name": "",
          "type": "bool"
        }
      ],
      "stateMutability": "view",
      "type": "function"
    },
    {
      "inputs": [],
      "name": "renounceOwnership",
      "outputs": [],
      "stateMutability": "nonpayable",
      "type": "function"
    },
    {
      "inputs": [],
      "name": "retireStrat",
      "outputs": [],
      "stateMutability": "nonpayable",
      "type": "function"
    },
    {
      "inputs": [],
      "name": "rewardPool",
      "outputs": [
        {
          "internalType": "address",
          "name": "",
          "type": "address"
        }
      ],
      "stateMutability": "view",
      "type": "function"
    },
    {
      "inputs": [
        {
          "internalType": "address",
          "name": "_beefyFeeRecipient",
          "type": "address"
        }
      ],
      "name": "setBeefyFeeRecipient",
      "outputs": [],
      "stateMutability": "nonpayable",
      "type": "function"
    },
    {
      "inputs": [
        {
          "internalType": "uint256",
          "name": "_fee",
          "type": "uint256"
        }
      ],
      "name": "setCallFee",
      "outputs": [],
      "stateMutability": "nonpayable",
      "type": "function"
    },
    {
      "inputs": [
        {
          "internalType": "address",
          "name": "_keeper",
          "type": "address"
        }
      ],
      "name": "setKeeper",
      "outputs": [],
      "stateMutability": "nonpayable",
      "type": "function"
    },
    {
      "inputs": [
        {
          "internalType": "address",
          "name": "_strategist",
          "type": "address"
        }
      ],
      "name": "setStrategist",
      "outputs": [],
      "stateMutability": "nonpayable",
      "type": "function"
    },
    {
      "inputs": [
        {
          "internalType": "address",
          "name": "_unirouter",
          "type": "address"
        }
      ],
      "name": "setUnirouter",
      "outputs": [],
      "stateMutability": "nonpayable",
      "type": "function"
    },
    {
      "inputs": [
        {
          "internalType": "address",
          "name": "_vault",
          "type": "address"
        }
      ],
      "name": "setVault",
      "outputs": [],
      "stateMutability": "nonpayable",
      "type": "function"
    },
    {
      "inputs": [
        {
          "internalType": "uint256",
          "name": "_fee",
          "type": "uint256"
        }
      ],
      "name": "setWithdrawalFee",
      "outputs": [],
      "stateMutability": "nonpayable",
      "type": "function"
    },
    {
      "inputs": [],
      "name": "strategist",
      "outputs": [
        {
          "internalType": "address",
          "name": "",
          "type": "address"
        }
      ],
      "stateMutability": "view",
      "type": "function"
    },
    {
      "inputs": [
        {
          "internalType": "address",
          "name": "newOwner",
          "type": "address"
        }
      ],
      "name": "transferOwnership",
      "outputs": [],
      "stateMutability": "nonpayable",
      "type": "function"
    },
    {
      "inputs": [],
      "name": "unirouter",
      "outputs": [
        {
          "internalType": "address",
          "name": "",
          "type": "address"
        }
      ],
      "stateMutability": "view",
      "type": "function"
    },
    {
      "inputs": [],
      "name": "unpause",
      "outputs": [],
      "stateMutability": "nonpayable",
      "type": "function"
    },
    {
      "inputs": [],
      "name": "vault",
      "outputs": [
        {
          "internalType": "address",
          "name": "",
          "type": "address"
        }
      ],
      "stateMutability": "view",
      "type": "function"
    },
    {
      "inputs": [],
      "name": "want",
      "outputs": [
        {
          "internalType": "address",
          "name": "",
          "type": "address"
        }
      ],
      "stateMutability": "view",
      "type": "function"
    },
    {
      "inputs": [
        {
          "internalType": "uint256",
          "name": "_amount",
          "type": "uint256"
        }
      ],
      "name": "withdraw",
      "outputs": [],
      "stateMutability": "nonpayable",
      "type": "function"
    },
    {
      "inputs": [],
      "name": "withdrawalFee",
      "outputs": [
        {
          "internalType": "uint256",
          "name": "",
          "type": "uint256"
        }
      ],
      "stateMutability": "view",
      "type": "function"
    }
  ],
  "transactionHash": "0x71bf59eb656277a6147870ffd58380d9ef4ee565fec4aa61a37370a29a4cc471",
  "args": [
    "0x160532D2536175d65C03B97b0630A9802c274daD",
    "0x1fdDd7F3A4c1f0e7494aa8B637B8003a64fdE21A",
    "0xf62c521c4fb3Fbc20EaB50E1871A90A53632f22e",
    "0xa5E0829CaCEd8fFDD4De3c43696c57F7D7A678ff",
    "0x10aee6B5594942433e7Fc2783598c979B030eF3D",
    "0x530115e78F7BC2fE235666651f9113DB9cecE5A2",
    "0xb66Ca5319eFc42FD1462693BAB51ee0C9E452745",
    [
      "0x831753DD7087CaC61aB5644b308642cc1c33Dc13",
      "0x0d500B1d8E8eF31E21C99d1Db9A6444d3ADf1270"
    ],
    [
      "0x831753DD7087CaC61aB5644b308642cc1c33Dc13",
      "0x2791Bca1f2de4661ED88A30C99A7a9449Aa84174"
    ],
    [
      "0x831753DD7087CaC61aB5644b308642cc1c33Dc13",
      "0x2791Bca1f2de4661ED88A30C99A7a9449Aa84174",
      "0xa3Fa99A148fA48D14Ed51d610c367C61876997F1"
    ]
  ],
  "solcInputHash": "cfb92417a49fab01630bcfc08ed4b59b",
  "bytecode": "0x6080604052600a600655606f60078190556200001f60706103e862000c63565b6200002b919062000c63565b6008553480156200003b57600080fd5b5060405162003196380380620031968339810160408190526200005e91620008b1565b8585888a87600033600080546001600160a01b0319166001600160a01b0383169081178255604051929350917f8be0079c531659141344cd1fd0a4f28419497f9722a3daafe3b4186f6b6457e0908290a3506000805460ff60a01b19168155600180546001600160a01b03199081166001600160a01b0398891617909155600280548216968816969096179095556003805486169487169490941790935560048054851692861692909217909155600580548416918516919091179055600b805483168e8516179055600e8054909216928c1692909217905583518491906200014b576200014b62000cf5565b6020026020010151600a60006101000a8154816001600160a01b0302191690836001600160a01b0316021790555082600184516200018a919062000c63565b815181106200019d576200019d62000cf5565b602090810291909101810151600980546001600160a01b0319166001600160a01b039092169190911790558351620001dc91600f919086019062000757565b50600b60009054906101000a90046001600160a01b03166001600160a01b0316630dfe16816040518163ffffffff1660e01b815260040160206040518083038186803b1580156200022c57600080fd5b505afa15801562000241573d6000803e3d6000fd5b505050506040513d601f19601f820116820180604052508101906200026791906200088f565b600c80546001600160a01b0319166001600160a01b039290921691909117905581516200029c90601090602085019062000757565b50600b60009054906101000a90046001600160a01b03166001600160a01b031663d21220a76040518163ffffffff1660e01b815260040160206040518083038186803b158015620002ec57600080fd5b505afa15801562000301573d6000803e3d6000fd5b505050506040513d601f19601f820116820180604052508101906200032791906200088f565b600d80546001600160a01b0319166001600160a01b039290921691909117905580516200035c90601190602084019062000757565b506200036762000377565b5050505050505050505062000d49565b600e54600b54620003a4916001600160a01b03918216911660001962000485602090811b6200112117901c565b600354600a54620003d1916001600160a01b03918216911660001962000485602090811b6200112117901c565b600354600c54620003fd916001600160a01b039182169116600062000485602090811b6200112117901c565b600354600c546200042a916001600160a01b03918216911660001962000485602090811b6200112117901c565b600354600d5462000456916001600160a01b039182169116600062000485602090811b6200112117901c565b600354600d5462000483916001600160a01b03918216911660001962000485602090811b6200112117901c565b565b801580620005145750604051636eb1769f60e11b81526001600160a01b0384169063dd62ed3e90620004be903090869060040162000b57565b60206040518083038186803b158015620004d757600080fd5b505afa158015620004ec573d6000803e3d6000fd5b505050506040513d601f19601f82011682018060405250810190620005129190620009fa565b155b6200053c5760405162461bcd60e51b8152600401620005339062000c1a565b60405180910390fd5b620005978363095ea7b360e01b84846040516024016200055e92919062000b7c565b60408051808303601f190181529190526020810180516001600160e01b0319939093166001600160e01b03938416179052906200059c16565b505050565b6000620005f8826040518060400160405280602081526020017f5361666545524332303a206c6f772d6c6576656c2063616c6c206661696c6564815250856001600160a01b03166200063860201b6200121b179092919060201c565b805190915015620005975780806020019051810190620006199190620009d8565b620005975760405162461bcd60e51b8152600401620005339062000c06565b606062000649848460008562000653565b90505b9392505050565b606082471015620006785760405162461bcd60e51b8152600401620005339062000bae565b843b620006995760405162461bcd60e51b8152600401620005339062000bc8565b600080866001600160a01b03168587604051620006b7919062000b49565b60006040518083038185875af1925050503d8060008114620006f6576040519150601f19603f3d011682016040523d82523d6000602084013e620006fb565b606091505b5090925090506200070e82828662000719565b979650505050505050565b606083156200072a5750816200064c565b8251156200073b5782518084602001fd5b8160405162461bcd60e51b815260040162000533919062000b99565b828054828255906000526020600020908101928215620007af579160200282015b82811115620007af57825182546001600160a01b0319166001600160a01b0390911617825560209092019160019091019062000778565b50620007bd929150620007c1565b5090565b5b80821115620007bd5760008155600101620007c2565b6000620007ef620007e98462000c3d565b62000c2e565b9050808382526020808301915083868660051b86011115620008145762000814600080fd5b60005b868110156200083e576200082b8262000849565b8452928201929082019060010162000817565b505050509392505050565b8051620008568162000d21565b919050565b600082601f830112620008715762000871600080fd5b6200064c83835160208501620007d8565b8051620008568162000d3a565b600060208284031215620008a657620008a6600080fd5b6200064c8262000849565b6000806000806000806000806000806101408b8d031215620008d657620008d6600080fd5b620008e18b62000849565b9950620008f160208c0162000849565b98506200090160408c0162000849565b97506200091160608c0162000849565b96506200092160808c0162000849565b95506200093160a08c0162000849565b94506200094160c08c0162000849565b60e08c01519094506001600160401b0380821115620009635762000963600080fd5b620009718e838f016200085b565b94506101008d01519150808211156200098d576200098d600080fd5b6200099b8e838f016200085b565b93506101208d0151915080821115620009b757620009b7600080fd5b50620009c68d828e016200085b565b9150509295989b9194979a5092959850565b600060208284031215620009ef57620009ef600080fd5b6200064c8262000882565b60006020828403121562000a115762000a11600080fd5b5051919050565b6000815162000a2c81856020860162000c7d565b9290920192915050565b80518083526000906020840162000a5282826020870162000c7d565b601f91909101601f1916019392505050565b602681526000602082017f416464726573733a20696e73756666696369656e742062616c616e636520666f8152651c8818d85b1b60d21b60208201525b60400192915050565b602a81526000602082017f5361666545524332303a204552433230206f7065726174696f6e20646964206e8152691bdd081cdd58d8d9595960b21b602082015262000aa1565b603681526000602082017f5361666545524332303a20617070726f76652066726f6d206e6f6e2d7a65726f81527f20746f206e6f6e2d7a65726f20616c6c6f77616e636500000000000000000000602082015262000aa1565b60006200064c828462000a18565b6001600160a01b0383168152604081016001600160a01b03831660208301526200064c565b6001600160a01b0383168152604081016200064c60208301849052565b6020815260006200064c602083018462000a36565b60208152600062000bc26020830162000a64565b92915050565b60208152600062000bc260208301601d81527f416464726573733a2063616c6c20746f206e6f6e2d636f6e7472616374000000602082015260400190565b60208152600062000bc26020830162000aaa565b60208152600062000bc26020830162000af0565b60405162000856828262000cb0565b60006001600160401b0382111562000c595762000c5962000d0b565b5060051b60200190565b60008282101562000c785762000c7862000cdf565b500390565b60005b8381101562000c9a57818101518382015260200162000c80565b8381111562000caa576000848401525b50505050565b601f8201601f191681016001600160401b038111828210171562000cd85762000cd862000d0b565b6040525050565b634e487b7160e01b600052601160045260246000fd5b634e487b7160e01b600052603260045260246000fd5b634e487b7160e01b600052604160045260246000fd5b6001600160a01b038116811462000d3757600080fd5b50565b801515811462000d3757600080fd5b61243d8062000d596000396000f3fe608060405234801561001057600080fd5b50600436106102745760003560e01c80638456cb5911610151578063c1a3d44c116100c3578063dfbdc43711610087578063dfbdc437146104b7578063f20eaeb8146104bf578063f2fde38b146104d2578063fb617787146104e5578063fbfa77cf146104ed578063fd63a8871461050057600080fd5b8063c1a3d44c14610478578063c7b9d53014610480578063d0e30db014610493578063d31025891461049b578063d92f3d73146104a457600080fd5b806390321e1a1161011557806390321e1a1461041a578063a68833e514610423578063ac1e502514610436578063aced166114610449578063bc063e1a1461045c578063be12a9781461046557600080fd5b80638456cb59146103d2578063877562b6146103da5780638bc7e8c4146103ed5780638da5cb5b146103f65780638e1454591461040757600080fd5b80634700d305116101ea57806366666aa9116101ae57806366666aa9146103815780636817031b14610394578063715018a6146103a7578063722713f7146103af578063748747e6146103b75780637d38ca65146103ca57600080fd5b80634700d3051461034357806354518b1a1461034b578063573fef0a146103035780635c975abb146103545780635ee167c01461036e57600080fd5b8063264658261161023c57806326465826146102f05780632ad5a53f146103055780632e1a7d4d1461030d57806336c6cf21146103205780633f4ba83a146103335780634641257d1461033b57600080fd5b8063115880861461027957806311b0b42d146102975780631f1fcd51146102b75780631fe4a686146102ca578063257ae0de146102dd575b600080fd5b610281610513565b60405161028e919061225e565b60405180910390f35b6009546102aa906001600160a01b031681565b60405161028e9190612086565b600b546102aa906001600160a01b031681565b6002546102aa906001600160a01b031681565b6003546102aa906001600160a01b031681565b6103036102fe366004611d09565b610599565b005b610281606f81565b61030361031b366004611d09565b610625565b6102aa61032e366004611d09565b610871565b61030361089b565b6103036108f4565b6103036109ea565b61028161271081565b600054600160a01b900460ff1660405161028e9190612153565b600c546102aa906001600160a01b031681565b600e546102aa906001600160a01b031681565b6103036103a2366004611c8a565b610a9a565b610303610ae6565b610281610b5a565b6103036103c5366004611c8a565b610b75565b610281607081565b610303610bd6565b600d546102aa906001600160a01b031681565b61028160065481565b6000546001600160a01b03166102aa565b6005546102aa906001600160a01b031681565b61028160075481565b610303610431366004611c8a565b610c25565b610303610444366004611d09565b610c71565b6001546102aa906001600160a01b031681565b6102816103e881565b6102aa610473366004611d09565b610cd6565b610281610ce6565b61030361048e366004611c8a565b610d17565b610303610d63565b61028160085481565b6103036104b2366004611c8a565b610e7c565b610281603281565b600a546102aa906001600160a01b031681565b6103036104e0366004611c8a565b610ec8565b610303610f73565b6004546102aa906001600160a01b031681565b6102aa61050e366004611d09565b611111565b600e546040516370a0823160e01b81526000916001600160a01b0316906370a0823190610544903090600401612086565b60206040518083038186803b15801561055c57600080fd5b505afa158015610570573d6000803e3d6000fd5b505050506040513d601f19601f820116820180604052508101906105949190611d25565b905090565b6000546001600160a01b03163314806105bc57506001546001600160a01b031633145b6105e15760405162461bcd60e51b81526004016105d890612216565b60405180910390fd5b606f8111156106025760405162461bcd60e51b81526004016105d8906121ce565b60078190558061061560706103e8612332565b61061f9190612332565b60085550565b6004546001600160a01b0316331461064f5760405162461bcd60e51b81526004016105d8906121e0565b600b546040516370a0823160e01b81526000916001600160a01b0316906370a0823190610680903090600401612086565b60206040518083038186803b15801561069857600080fd5b505afa1580156106ac573d6000803e3d6000fd5b505050506040513d601f19601f820116820180604052508101906106d09190611d25565b9050818110156107c657600e546001600160a01b0316632e1a7d4d6106f58484611234565b6040518263ffffffff1660e01b8152600401610711919061225e565b600060405180830381600087803b15801561072b57600080fd5b505af115801561073f573d6000803e3d6000fd5b5050600b546040516370a0823160e01b81526001600160a01b0390911692506370a082319150610773903090600401612086565b60206040518083038186803b15801561078b57600080fd5b505afa15801561079f573d6000803e3d6000fd5b505050506040513d601f19601f820116820180604052508101906107c39190611d25565b90505b818111156107d15750805b6000546001600160a01b03163214806107f35750600054600160a01b900460ff165b1561081957600454600b54610815916001600160a01b03918216911683611249565b5050565b600061083c6127106108366006548561126890919063ffffffff16565b90611274565b60045490915061086c906001600160a01b03166108598484611234565b600b546001600160a01b03169190611249565b505050565b6010818154811061088157600080fd5b6000918252602090912001546001600160a01b0316905081565b6000546001600160a01b03163314806108be57506001546001600160a01b031633145b6108da5760405162461bcd60e51b81526004016105d890612216565b6108e2611280565b6108ea6112f0565b6108f2610d63565b565b600054600160a01b900460ff161561091e5760405162461bcd60e51b81526004016105d8906121bc565b33321461093d5760405162461bcd60e51b81526004016105d89061223a565b600e60009054906101000a90046001600160a01b03166001600160a01b0316633d18b9126040518163ffffffff1660e01b8152600401600060405180830381600087803b15801561098d57600080fd5b505af11580156109a1573d6000803e3d6000fd5b505050506109ad6113a8565b6109b56115fa565b6109bd610d63565b60405133907f577a37fdb49a88d66684922c6f913df5239b4f214b2b97c53ef8e3bbb2034cb590600090a2565b6000546001600160a01b0316331480610a0d57506001546001600160a01b031633145b610a295760405162461bcd60e51b81526004016105d890612216565b610a31610bd6565b600e546001600160a01b0316632e1a7d4d610a4a610513565b6040518263ffffffff1660e01b8152600401610a66919061225e565b600060405180830381600087803b158015610a8057600080fd5b505af1158015610a94573d6000803e3d6000fd5b50505050565b6000546001600160a01b03163314610ac45760405162461bcd60e51b81526004016105d8906121f2565b600480546001600160a01b0319166001600160a01b0392909216919091179055565b6000546001600160a01b03163314610b105760405162461bcd60e51b81526004016105d8906121f2565b600080546040516001600160a01b03909116907f8be0079c531659141344cd1fd0a4f28419497f9722a3daafe3b4186f6b6457e0908390a3600080546001600160a01b0319169055565b6000610594610b67610513565b610b6f610ce6565b90611982565b6000546001600160a01b0316331480610b9857506001546001600160a01b031633145b610bb45760405162461bcd60e51b81526004016105d890612216565b600180546001600160a01b0319166001600160a01b0392909216919091179055565b6000546001600160a01b0316331480610bf957506001546001600160a01b031633145b610c155760405162461bcd60e51b81526004016105d890612216565b610c1d61198e565b6108f26119f3565b6000546001600160a01b03163314610c4f5760405162461bcd60e51b81526004016105d8906121f2565b600580546001600160a01b0319166001600160a01b0392909216919091179055565b6000546001600160a01b0316331480610c9457506001546001600160a01b031633145b610cb05760405162461bcd60e51b81526004016105d890612216565b6032811115610cd15760405162461bcd60e51b81526004016105d8906121ce565b600655565b600f818154811061088157600080fd5b600b546040516370a0823160e01b81526000916001600160a01b0316906370a0823190610544903090600401612086565b6002546001600160a01b03163314610d415760405162461bcd60e51b81526004016105d890612186565b600280546001600160a01b0319166001600160a01b0392909216919091179055565b600054600160a01b900460ff1615610d8d5760405162461bcd60e51b81526004016105d8906121bc565b600b546040516370a0823160e01b81526000916001600160a01b0316906370a0823190610dbe903090600401612086565b60206040518083038186803b158015610dd657600080fd5b505afa158015610dea573d6000803e3d6000fd5b505050506040513d601f19601f82011682018060405250810190610e0e9190611d25565b90508015610e7957600e5460405163534a7e1d60e11b81526001600160a01b039091169063a694fc3a90610e4690849060040161225e565b600060405180830381600087803b158015610e6057600080fd5b505af1158015610e74573d6000803e3d6000fd5b505050505b50565b6000546001600160a01b03163314610ea65760405162461bcd60e51b81526004016105d8906121f2565b600380546001600160a01b0319166001600160a01b0392909216919091179055565b6000546001600160a01b03163314610ef25760405162461bcd60e51b81526004016105d8906121f2565b6001600160a01b038116610f185760405162461bcd60e51b81526004016105d890612198565b600080546040516001600160a01b03808516939216917f8be0079c531659141344cd1fd0a4f28419497f9722a3daafe3b4186f6b6457e091a3600080546001600160a01b0319166001600160a01b0392909216919091179055565b6004546001600160a01b03163314610f9d5760405162461bcd60e51b81526004016105d8906121e0565b600e546001600160a01b0316632e1a7d4d610fb6610513565b6040518263ffffffff1660e01b8152600401610fd2919061225e565b600060405180830381600087803b158015610fec57600080fd5b505af1158015611000573d6000803e3d6000fd5b5050600b546040516370a0823160e01b8152600093506001600160a01b0390911691506370a0823190611037903090600401612086565b60206040518083038186803b15801561104f57600080fd5b505afa158015611063573d6000803e3d6000fd5b505050506040513d601f19601f820116820180604052508101906110879190611d25565b600b546004805460405163a9059cbb60e01b81529394506001600160a01b039283169363a9059cbb936110bf93921691869101612137565b602060405180830381600087803b1580156110d957600080fd5b505af11580156110ed573d6000803e3d6000fd5b505050506040513d601f19601f820116820180604052508101906108159190611ceb565b6011818154811061088157600080fd5b8015806111a95750604051636eb1769f60e11b81526001600160a01b0384169063dd62ed3e90611157903090869060040161209b565b60206040518083038186803b15801561116f57600080fd5b505afa158015611183573d6000803e3d6000fd5b505050506040513d601f19601f820116820180604052508101906111a79190611d25565b155b6111c55760405162461bcd60e51b81526004016105d89061224c565b61086c8363095ea7b360e01b84846040516024016111e4929190612137565b60408051601f198184030181529190526020810180516001600160e01b03166001600160e01b031990931692909217909152611a6b565b606061122a8484600085611afa565b90505b9392505050565b60006112408284612332565b90505b92915050565b61086c8363a9059cbb60e01b84846040516024016111e4929190612137565b60006112408284612313565b600061124082846122ff565b600054600160a01b900460ff166112a95760405162461bcd60e51b81526004016105d890612174565b6000805460ff60a01b191690557f5db9ee0a495bf2e6ff9c91a7834c1ba4fdd244a5e8aa4e537bd38aeae4b073aa335b6040516112e69190612086565b60405180910390a1565b600e54600b5461130f916001600160a01b039182169116600019611121565b600354600a5461132e916001600160a01b039182169116600019611121565b600354600c5461134c916001600160a01b0391821691166000611121565b600354600c5461136b916001600160a01b039182169116600019611121565b600354600d54611389916001600160a01b0391821691166000611121565b600354600d546108f2916001600160a01b039182169116600019611121565b600a546040516370a0823160e01b815260009161143e916103e89161083691602d916001600160a01b0316906370a08231906113e8903090600401612086565b60206040518083038186803b15801561140057600080fd5b505afa158015611414573d6000803e3d6000fd5b505050506040513d601f19601f820116820180604052508101906114389190611d25565b90611268565b6003546040516338ed173960e01b81529192506001600160a01b0316906338ed173990611479908490600090600f903090429060040161226a565b600060405180830381600087803b15801561149357600080fd5b505af11580156114a7573d6000803e3d6000fd5b505050506040513d6000823e601f3d908101601f191682016040526114cf9190810190611ca8565b506009546040516370a0823160e01b81526000916001600160a01b0316906370a0823190611501903090600401612086565b60206040518083038186803b15801561151957600080fd5b505afa15801561152d573d6000803e3d6000fd5b505050506040513d601f19601f820116820180604052508101906115519190611d25565b905060006115706103e86108366007548561126890919063ffffffff16565b60095490915061158a906001600160a01b03163383611249565b60006115a76103e86108366008548661126890919063ffffffff16565b6005546009549192506115c7916001600160a01b03908116911683611249565b60006115da6103e8610836866070611268565b600254600954919250610e74916001600160a01b03908116911683611249565b600a546040516370a0823160e01b8152600091611682916002916001600160a01b0316906370a0823190611632903090600401612086565b60206040518083038186803b15801561164a57600080fd5b505afa15801561165e573d6000803e3d6000fd5b505050506040513d601f19601f820116820180604052508101906108369190611d25565b600a54600c549192506001600160a01b0391821691161461172f576003546040516338ed173960e01b81526001600160a01b03909116906338ed1739906116d79084906000906010903090429060040161226a565b600060405180830381600087803b1580156116f157600080fd5b505af1158015611705573d6000803e3d6000fd5b505050506040513d6000823e601f3d908101601f1916820160405261172d9190810190611ca8565b505b600a54600d546001600160a01b039081169116146117d9576003546040516338ed173960e01b81526001600160a01b03909116906338ed1739906117819084906000906011903090429060040161226a565b600060405180830381600087803b15801561179b57600080fd5b505af11580156117af573d6000803e3d6000fd5b505050506040513d6000823e601f3d908101601f191682016040526117d79190810190611ca8565b505b600c546040516370a0823160e01b81526000916001600160a01b0316906370a082319061180a903090600401612086565b60206040518083038186803b15801561182257600080fd5b505afa158015611836573d6000803e3d6000fd5b505050506040513d601f19601f8201168201806040525081019061185a9190611d25565b600d546040516370a0823160e01b81529192506000916001600160a01b03909116906370a0823190611890903090600401612086565b60206040518083038186803b1580156118a857600080fd5b505afa1580156118bc573d6000803e3d6000fd5b505050506040513d601f19601f820116820180604052508101906118e09190611d25565b600354600c54600d5460405162e8e33760e81b81529394506001600160a01b039283169363e8e3370093611928938116921690879087906001908190309042906004016120bf565b606060405180830381600087803b15801561194257600080fd5b505af1158015611956573d6000803e3d6000fd5b505050506040513d601f19601f8201168201806040525081019061197a9190611d41565b505050505050565b600061124082846122e7565b600054600160a01b900460ff16156119b85760405162461bcd60e51b81526004016105d8906121bc565b6000805460ff60a01b1916600160a01b1790557f62e78cea01bee320cd4e420270b5ea74000d11b0c9f74754ebdbfc544b05a2586112d93390565b600e54600b54611a11916001600160a01b0391821691166000611121565b600354600a54611a2f916001600160a01b0391821691166000611121565b600354600c54611a4d916001600160a01b0391821691166000611121565b600354600d546108f2916001600160a01b0391821691166000611121565b6000611ac0826040518060400160405280602081526020017f5361666545524332303a206c6f772d6c6576656c2063616c6c206661696c6564815250856001600160a01b031661121b9092919063ffffffff16565b80519091501561086c5780806020019051810190611ade9190611ceb565b61086c5760405162461bcd60e51b81526004016105d890612228565b606082471015611b1c5760405162461bcd60e51b81526004016105d8906121aa565b843b611b3a5760405162461bcd60e51b81526004016105d890612204565b600080866001600160a01b03168587604051611b56919061207a565b60006040518083038185875af1925050503d8060008114611b93576040519150601f19603f3d011682016040523d82523d6000602084013e611b98565b606091505b5091509150611ba8828286611bb3565b979650505050505050565b60608315611bc257508161122d565b825115611bd25782518084602001fd5b8160405162461bcd60e51b81526004016105d89190612161565b6000611bff611bfa846122c3565b6122b6565b9050808382526020808301915083868660051b86011115611c2257611c22600080fd5b60005b86811015611c4157815184529282019290820190600101611c25565b505050509392505050565b8035611c57816123e4565b919050565b600082601f830112611c7057611c70600080fd5b61124083835160208501611bec565b8051611c57816123f9565b600060208284031215611c9f57611c9f600080fd5b61124082611c4c565b600060208284031215611cbd57611cbd600080fd5b815167ffffffffffffffff811115611cd757611cd7600080fd5b611ce384828501611c5c565b949350505050565b600060208284031215611d0057611d00600080fd5b61124082611c7f565b600060208284031215611d1e57611d1e600080fd5b5035919050565b600060208284031215611d3a57611d3a600080fd5b5051919050565b600080600060608486031215611d5957611d59600080fd5b8351925060208401519150604084015190509250925092565b805480835260008281526020808220940193909190825b82811015611dc557611db786611da684546001600160a01b031690565b6001600160a01b0316815260200190565b955060019182019101611d89565b5093949350505050565b60008151611de1818560208601612349565b9290920192915050565b805180835260009060208401611e05828260208701612349565b601f91909101601f1916019392505050565b601481526000602082017314185d5cd8589b194e881b9bdd081c185d5cd95960621b81525b60200192915050565b600b81526000602082016a085cdd1c985d1959da5cdd60aa1b8152611e3c565b602681526000602082017f4f776e61626c653a206e6577206f776e657220697320746865207a65726f206181526564647265737360d01b60208201525b60400192915050565b602681526000602082017f416464726573733a20696e73756666696369656e742062616c616e636520666f8152651c8818d85b1b60d21b6020820152611ea2565b601081526000602082016f14185d5cd8589b194e881c185d5cd95960821b8152611e3c565b60048152600060208201630216361760e41b8152611e3c565b6006815260006020820165085d985d5b1d60d21b8152611e3c565b6000611f548260208082520190565b7f4f776e61626c653a2063616c6c6572206973206e6f7420746865206f776e65728152611e3c565b601d81526000602082017f416464726573733a2063616c6c20746f206e6f6e2d636f6e74726163740000008152611e3c565b600881526000602082016710b6b0b730b3b2b960c11b8152611e3c565b602a81526000602082017f5361666545524332303a204552433230206f7065726174696f6e20646964206e8152691bdd081cdd58d8d9595960b21b6020820152611ea2565b600481526000602082016321454f4160e01b8152611e3c565b603681526000602082017f5361666545524332303a20617070726f76652066726f6d206e6f6e2d7a65726f81527520746f206e6f6e2d7a65726f20616c6c6f77616e636560501b6020820152611ea2565b60006112408284611dcf565b6001600160a01b038216815260208101611243565b6001600160a01b0383168152604081016001600160a01b038316602083015261122d565b6001600160a01b038916815261010081016001600160a01b03891660208301526120eb60408301899052565b6120f760608301889052565b61210360808301879052565b61210f60a08301869052565b6001600160a01b03841660c083015261212a60e08301849052565b9998505050505050505050565b6001600160a01b03831681526040810161122d60208301849052565b811515815260208101611243565b6020815260006112406020830184611deb565b60208152600061124360208301611e17565b60208152600061124360208301611e45565b60208152600061124360208301611e65565b60208152600061124360208301611eab565b60208152600061124360208301611eec565b60208152600061124360208301611f11565b60208152600061124360208301611f2a565b60208152600061124360208301611f45565b60208152600061124360208301611f7c565b60208152600061124360208301611fae565b60208152600061124360208301611fcb565b60208152600061124360208301612010565b60208152600061124360208301612029565b81815260208101611243565b85815261227960208201869052565b60a06040820152600061228f60a0830186611d72565b6001600160a01b038516606084015290506122ac60808301849052565b9695505050505050565b604051611c578282612375565b600067ffffffffffffffff8211156122dd576122dd6123ce565b5060051b60200190565b600082198211156122fa576122fa6123a2565b500190565b60008261230e5761230e6123b8565b500490565b600081600019048311821515161561232d5761232d6123a2565b500290565b600082821015612344576123446123a2565b500390565b60005b8381101561236457818101518382015260200161234c565b83811115610a945750506000910152565b601f8201601f1916810167ffffffffffffffff8111828210171561239b5761239b6123ce565b6040525050565b634e487b7160e01b600052601160045260246000fd5b634e487b7160e01b600052601260045260246000fd5b634e487b7160e01b600052604160045260246000fd5b6001600160a01b0381168114610e7957600080fd5b8015158114610e7957600080fdfea26469706673582212209bfe4cd37612a8a0863bdeee74dc9d66787fb1974a92a1627dbee070e74ba1f364736f6c63430008050033",
  "devdoc": {
    "events": {
      "StratHarvest(address)": {
        "details": "Event that is fired each time someone harvests the strat."
      }
    },
    "kind": "dev",
    "methods": {
      "beforeDeposit()": {
        "details": "Function to synchronize balances before new user deposit. Can be overridden in the strategy."
      },
      "owner()": {
        "details": "Returns the address of the current owner."
      },
      "paused()": {
        "details": "Returns true if the contract is paused, and false otherwise."
      },
      "renounceOwnership()": {
        "details": "Leaves the contract without owner. It will not be possible to call `onlyOwner` functions anymore. Can only be called by the current owner. NOTE: Renouncing ownership will leave the contract without an owner, thereby removing any functionality that is only available to the owner."
      },
      "setBeefyFeeRecipient(address)": {
        "details": "Updates beefy fee recipient.",
        "params": {
          "_beefyFeeRecipient": "new beefy fee recipient address."
        }
      },
      "setKeeper(address)": {
        "details": "Updates address of the strat keeper.",
        "params": {
          "_keeper": "new keeper address."
        }
      },
      "setStrategist(address)": {
        "details": "Updates address where strategist fee earnings will go.",
        "params": {
          "_strategist": "new strategist address."
        }
      },
      "setUnirouter(address)": {
        "details": "Updates router that will be used for swaps.",
        "params": {
          "_unirouter": "new unirouter address."
        }
      },
      "setVault(address)": {
        "details": "Updates parent vault.",
        "params": {
          "_vault": "new vault address."
        }
      },
      "transferOwnership(address)": {
        "details": "Transfers ownership of the contract to a new account (`newOwner`). Can only be called by the current owner."
      }
    },
    "version": 1
  },
  "userdoc": {
    "kind": "user",
    "methods": {},
    "version": 1
  },
  "storageLayout": {
    "storage": [
      {
        "astId": 375,
        "contract": "contracts/BIFI/strategies/Common/StrategyCommonRewardPoolLP.sol:StrategyCommonRewardPoolLP",
        "label": "_owner",
        "offset": 0,
        "slot": "0",
        "type": "t_address"
      },
      {
        "astId": 1263,
        "contract": "contracts/BIFI/strategies/Common/StrategyCommonRewardPoolLP.sol:StrategyCommonRewardPoolLP",
        "label": "_paused",
        "offset": 20,
        "slot": "0",
        "type": "t_bool"
      },
      {
        "astId": 38436,
        "contract": "contracts/BIFI/strategies/Common/StrategyCommonRewardPoolLP.sol:StrategyCommonRewardPoolLP",
        "label": "keeper",
        "offset": 0,
        "slot": "1",
        "type": "t_address"
      },
      {
        "astId": 38438,
        "contract": "contracts/BIFI/strategies/Common/StrategyCommonRewardPoolLP.sol:StrategyCommonRewardPoolLP",
        "label": "strategist",
        "offset": 0,
        "slot": "2",
        "type": "t_address"
      },
      {
        "astId": 38440,
        "contract": "contracts/BIFI/strategies/Common/StrategyCommonRewardPoolLP.sol:StrategyCommonRewardPoolLP",
        "label": "unirouter",
        "offset": 0,
        "slot": "3",
        "type": "t_address"
      },
      {
        "astId": 38442,
        "contract": "contracts/BIFI/strategies/Common/StrategyCommonRewardPoolLP.sol:StrategyCommonRewardPoolLP",
        "label": "vault",
        "offset": 0,
        "slot": "4",
        "type": "t_address"
      },
      {
        "astId": 38444,
        "contract": "contracts/BIFI/strategies/Common/StrategyCommonRewardPoolLP.sol:StrategyCommonRewardPoolLP",
        "label": "beefyFeeRecipient",
        "offset": 0,
        "slot": "5",
        "type": "t_address"
      },
      {
        "astId": 38368,
        "contract": "contracts/BIFI/strategies/Common/StrategyCommonRewardPoolLP.sol:StrategyCommonRewardPoolLP",
        "label": "withdrawalFee",
        "offset": 0,
        "slot": "6",
        "type": "t_uint256"
      },
      {
        "astId": 38371,
        "contract": "contracts/BIFI/strategies/Common/StrategyCommonRewardPoolLP.sol:StrategyCommonRewardPoolLP",
        "label": "callFee",
        "offset": 0,
        "slot": "7",
        "type": "t_uint256"
      },
      {
        "astId": 38378,
        "contract": "contracts/BIFI/strategies/Common/StrategyCommonRewardPoolLP.sol:StrategyCommonRewardPoolLP",
        "label": "beefyFee",
        "offset": 0,
        "slot": "8",
        "type": "t_uint256"
      },
      {
        "astId": 39566,
        "contract": "contracts/BIFI/strategies/Common/StrategyCommonRewardPoolLP.sol:StrategyCommonRewardPoolLP",
        "label": "native",
        "offset": 0,
        "slot": "9",
        "type": "t_address"
      },
      {
        "astId": 39568,
        "contract": "contracts/BIFI/strategies/Common/StrategyCommonRewardPoolLP.sol:StrategyCommonRewardPoolLP",
        "label": "output",
        "offset": 0,
        "slot": "10",
        "type": "t_address"
      },
      {
        "astId": 39570,
        "contract": "contracts/BIFI/strategies/Common/StrategyCommonRewardPoolLP.sol:StrategyCommonRewardPoolLP",
        "label": "want",
        "offset": 0,
        "slot": "11",
        "type": "t_address"
      },
      {
        "astId": 39572,
        "contract": "contracts/BIFI/strategies/Common/StrategyCommonRewardPoolLP.sol:StrategyCommonRewardPoolLP",
        "label": "lpToken0",
        "offset": 0,
        "slot": "12",
        "type": "t_address"
      },
      {
        "astId": 39574,
        "contract": "contracts/BIFI/strategies/Common/StrategyCommonRewardPoolLP.sol:StrategyCommonRewardPoolLP",
        "label": "lpToken1",
        "offset": 0,
        "slot": "13",
        "type": "t_address"
      },
      {
        "astId": 39576,
        "contract": "contracts/BIFI/strategies/Common/StrategyCommonRewardPoolLP.sol:StrategyCommonRewardPoolLP",
        "label": "rewardPool",
        "offset": 0,
        "slot": "14",
        "type": "t_address"
      },
      {
        "astId": 39579,
        "contract": "contracts/BIFI/strategies/Common/StrategyCommonRewardPoolLP.sol:StrategyCommonRewardPoolLP",
        "label": "outputToNativeRoute",
        "offset": 0,
        "slot": "15",
        "type": "t_array(t_address)dyn_storage"
      },
      {
        "astId": 39582,
        "contract": "contracts/BIFI/strategies/Common/StrategyCommonRewardPoolLP.sol:StrategyCommonRewardPoolLP",
        "label": "outputToLp0Route",
        "offset": 0,
        "slot": "16",
        "type": "t_array(t_address)dyn_storage"
      },
      {
        "astId": 39585,
        "contract": "contracts/BIFI/strategies/Common/StrategyCommonRewardPoolLP.sol:StrategyCommonRewardPoolLP",
        "label": "outputToLp1Route",
        "offset": 0,
        "slot": "17",
        "type": "t_array(t_address)dyn_storage"
      }
    ],
    "types": {
      "t_address": {
        "encoding": "inplace",
        "label": "address",
        "numberOfBytes": "20"
      },
      "t_array(t_address)dyn_storage": {
        "base": "t_address",
        "encoding": "dynamic_array",
        "label": "address[]",
        "numberOfBytes": "32"
      },
      "t_bool": {
        "encoding": "inplace",
        "label": "bool",
        "numberOfBytes": "1"
      },
      "t_uint256": {
        "encoding": "inplace",
        "label": "uint256",
        "numberOfBytes": "32"
      }
    }
  }
}